:04000000CDEF00F050
:10000800FACF7CF0FBCF7DF0E9CF7EF0F4ED1DF068
:10001800D8CF0AF0E8CF0BF0E0CF0CF0FACF0DF014
:10002800FBCF0EF0E9CF0FF0EACF10F0E1CF11F0DF
:10003800E2CF12F0D9CF13F0DACF14F0F3CF15F0E6
:10004800F4CF16F0F6CF17F0F7CF18F0F8CF19F075
:10005800F5CF1AF09DBC9EAC79D0010E2924086E0C
:10006800000E2A20096E08503D0A0910D8A44CD069
:100078002C502B10D8B40ED02BC0D9FF2CC0DAFFCF
:10008800DFAE03D0086A082A01D0086A08501B6E40
:100098001C6A04D0000E1C6E000E1B6E1C501B1038
:1000A800D8A454D00501400E2924D96E0501050EA7
:1000B8002A20DA6EC3CFDFFF010E2924086E000E56
:1000C8002A20096E0501400E0824D96E0501050E87
:1000D8000920DA6EC4CFDFFF05017F69010E016ECA
:1000E8000501050E036E0501400E026E400E046EFA
:1000F800010E51EC1AF001C02BF002C02CF0000EDA
:100108002A6E000E296E20D00501400E2924D96ED2
:100118000501050E2A20DA6EC3CFDFFF010E292460
:10012800086E000E2A20096E0501400E0824D96EBB
:100138000501050E0920DA6EC4CFDFFF020E29245F
:10014800296E000E2A202A6E9E9CC2821AC0F5FFD4
:1001580019C0F8FF18C0F7FF17C0F6FF16C0F4FF64
:1001680015C0F3FF14C0DAFF13C0D9FF12C0E2FFB5
:1001780011C0E1FF10C0EAFF0FC0E9FF0EC0FBFF8E
:100188000DC0FAFF0CC0E0FF0BC0E8FF0AC0D8FFA3
:06019800100022EF20F030
:1008000000C30809083D086B0834034D0069006304
:100810000072006F006300680069007000200054DF
:10082000006500630068006E006F006C006F006779
:10083000007900200049006E0063002E002E035353
:100840000069006D0070006C0065002000480049E0
:1008500000440020004400650076006900630065E4
:10086000002000440065006D006F000902290001AE
:100870000100C03209040000020300000009211138
:10088000010001221D000705810340000107050149
:10089000034000010600FF0901A1011901294015CB
:1008A0000026FF007508954081001901294091003C
:1008B000C01201000200000008D8043F000001013E
:1008C0000200010403090400010E0501406F010E3E
:1008D00000018A6F0501050E00018C6F0501400EB5
:1008E00000018B6F400E00018D6F010EA2EC17F01E
:1008F00000018AC02BF000018BC02CF02C502B1073
:10090000D8B413D02BC0D9FF2CC0DAFFDFAE04D08F
:100910000001916B912B02D00001916B000191516C
:100920000101006F0101016B06D0000E0101016F92
:10093000000E0101006F010101510011D8A4DED7A2
:10094000020E0501406F010E00018A6F0501050EC0
:1009500000018C6F0501400E00018B6F400E0001FD
:100960008D6F010EA2EC17F000018AC02BF0000180
:100970008BC02CF02C502B10D8B413D02BC0D9FF27
:100980002CC0DAFFDFAE04D00001916B912B02D0B6
:100990000001916B000191510101026F0101036B94
:1009A00006D0000E0101036F000E0101026F01016C
:1009B00003510211D8A4DED7030E0501406F010ECA
:1009C00000018A6F0501050E00018C6F0501400EC4
:1009D00000018B6F400E00018D6F010EA2EC17F02D
:1009E00000018AC02BF000018BC02CF02C502B1082
:1009F000D8B413D02BC0D9FF2CC0DAFFDFAE04D09F
:100A00000001916B912B02D00001916B000191517B
:100A10000101046F0101056B06D0000E0101056F95
:100A2000000E0101046F010105510411D8A4DED7A5
:100A3000040E0501406F010E00018A6F0501050ECD
:100A400000018C6F0501400E00018B6F400E00010C
:100A50008D6F010EA2EC17F000018AC02BF000018F
:100A60008BC02CF02C502B10D8B413D02BC0D9FF36
:100A70002CC0DAFFDFAE04D00001916B912B02D0C5
:100A80000001916B000191510101066F0101076B9B
:100A900006D0000E0101076F000E0101066F010173
:100AA00007510611D8A4DED7050E0501406F010ECF
:100AB00000018A6F0501050E00018C6F0501400ED3
:100AC00000018B6F400E00018D6F010EA2EC17F03C
:100AD00000018AC02BF000018BC02CF02C502B1091
:100AE000D8B413D02BC0D9FF2CC0DAFFDFAE04D0AE
:100AF0000001916B912B02D00001916B000191518B
:100B00000101086F0101096B06D0000E0101096F98
:100B1000000E0101086F010109510811D8A4DED7A8
:100B2000060E0501406F010E00018A6F0501050EDA
:100B300000018C6F0501400E00018B6F400E00011B
:100B40008D6F010EA2EC17F000018AC02BF000019E
:100B50008BC02CF02C502B10D8B413D02BC0D9FF45
:100B60002CC0DAFFDFAE04D00001916B912B02D0D4
:100B70000001916B0001915101010A6F01010B6BA2
:100B800006D0000E01010B6F000E01010A6F01017A
:100B90000B510A11D8A4DED7070E0501406F010ED4
:100BA00000018A6F0501050E00018C6F0501400EE2
:100BB00000018B6F400E00018D6F010EA2EC17F04B
:100BC00000018AC02BF000018BC02CF02C502B10A0
:100BD000D8B413D02BC0D9FF2CC0DAFFDFAE04D0BD
:100BE0000001916B912B02D00001916B000191519A
:100BF00001010C6F01010D6B06D0000E01010D6F9C
:100C0000000E01010C6F01010D510C11D8A4DED7AB
:100C1000080E0501406F010E00018A6F0501050EE7
:100C200000018C6F0501400E00018B6F400E00012A
:100C30008D6F010EA2EC17F000018AC02BF00001AD
:100C40008BC02CF02C502B10D8B413D02BC0D9FF54
:100C50002CC0DAFFDFAE04D00001916B912B02D0E3
:100C60000001916B0001915101010E6F01010F6BA9
:100C700006D0000E01010F6F000E01010E6F010181
:100C80000F510E11D8A4DED7090E0501406F010ED9
:100C900000018A6F0501050E00018C6F0501400EF1
:100CA00000018B6F400E00018D6F010EA2EC17F05A
:100CB00000018AC02BF000018BC02CF02C502B10AF
:100CC000D8B413D02BC0D9FF2CC0DAFFDFAE04D0CC
:100CD0000001916B912B02D00001916B00019151A9
:100CE0000101106F0101116B06D0000E0101116F9F
:100CF000000E0101106F010111511011D8A4DED7AF
:100D00000A0E0501406F010E00018A6F0501050EF4
:100D100000018C6F0501400E00018B6F400E000139
:100D20008D6F010EA2EC17F000018AC02BF00001BC
:100D30008BC02CF02C502B10D8B413D02BC0D9FF63
:100D40002CC0DAFFDFAE04D00001916B912B02D0F2
:100D50000001916B000191510101126F0101136BB0
:100D600006D0000E0101136F000E0101126F010188
:100D700013511211D8A4DED70B0E0501406F010EDE
:100D800000018A6F0501050E00018C6F0501400E00
:100D900000018B6F400E00018D6F010EA2EC17F069
:100DA00000018AC02BF000018BC02CF02C502B10BE
:100DB000D8B413D02BC0D9FF2CC0DAFFDFAE04D0DB
:100DC0000001916B912B02D00001916B00019151B8
:100DD0000101146F0101156B06D0000E0101156FA2
:100DE000000E0101146F010115511411D8A4DED7B2
:100DF0000C0E0501406F010E00018A6F0501050E02
:100E000000018C6F0501400E00018B6F400E000148
:100E10008D6F010EA2EC17F000018AC02BF00001CB
:100E20008BC02CF02C502B10D8B413D02BC0D9FF72
:100E30002CC0DAFFDFAE04D00001916B912B02D001
:100E40000001916B000191510101166F0101176BB7
:100E500006D0000E0101176F000E0101166F01018F
:100E600017511611D8A4DED70D0E0501406F010EE3
:100E700000018A6F0501050E00018C6F0501400E0F
:100E800000018B6F400E00018D6F010EA2EC17F078
:100E900000018AC02BF000018BC02CF02C502B10CD
:100EA000D8B413D02BC0D9FF2CC0DAFFDFAE04D0EA
:100EB0000001916B912B02D00001916B00019151C7
:100EC0000101186F0101196B06D0000E0101196FA5
:100ED000000E0101186F010119511811D8A4DED7B5
:100EE0000E0E0501406F010E00018A6F0501050E0F
:100EF00000018C6F0501400E00018B6F400E000158
:100F00008D6F010EA2EC17F000018AC02BF00001DA
:100F10008BC02CF02C502B10D8B413D02BC0D9FF81
:100F20002CC0DAFFDFAE04D00001916B912B02D010
:100F30000001916B0001915101011A6F01011B6BBE
:100F400006D0000E01011B6F000E01011A6F010196
:100F50001B511A11D8A4DED70F0E0501406F010EE8
:100F600000018A6F0501050E00018C6F0501400E1E
:100F700000018B6F400E00018D6F010EA2EC17F087
:100F800000018AC02BF000018BC02CF02C502B10DC
:100F9000D8B413D02BC0D9FF2CC0DAFFDFAE04D0F9
:100FA0000001916B912B02D00001916B00019151D6
:100FB00001011C6F01011D6B06D0000E01011D6FA8
:100FC000000E01011C6F01011D511C11D8A4DED7B8
:100FD000100E0501406F010E00018A6F0501050E1C
:100FE00000018C6F0501400E00018B6F400E000167
:100FF0008D6F010EA2EC17F000018AC02BF00001EA
:101000008BC02CF02C502B10D8B413D02BC0D9FF90
:101010002CC0DAFFDFAE04D00001916B912B02D01F
:101020000001916B0001915101011E6F01011F6BC5
:1010300006D0000E01011F6F000E01011E6F01019D
:101040001F511E11D8A4DED7110E0501406F010EED
:1010500000018A6F0501050E00018C6F0501400E2D
:1010600000018B6F400E00018D6F010EA2EC17F096
:1010700000018AC02BF000018BC02CF02C502B10EB
:10108000D8B413D02BC0D9FF2CC0DAFFDFAE04D008
:101090000001916B912B02D00001916B00019151E5
:1010A0000101206F0101216B06D0000E0101216FAB
:1010B000000E0101206F010121512011D8A4DED7BB
:1010C000120E0501406F010E00018A6F0501050E29
:1010D00000018C6F0501400E00018B6F400E000176
:1010E0008D6F010EA2EC17F000018AC02BF00001F9
:1010F0008BC02CF02C502B10D8B413D02BC0D9FFA0
:101100002CC0DAFFDFAE04D00001916B912B02D02E
:101110000001916B000191510101226F0101236BCC
:1011200006D0000E0101236F000E0101226F0101A4
:1011300023512211D8A4DED7130E0501406F010EF2
:1011400000018A6F0501050E00018C6F0501400E3C
:1011500000018B6F400E00018D6F010EA2EC17F0A5
:1011600000018AC02BF000018BC02CF02C502B10FA
:10117000D8B413D02BC0D9FF2CC0DAFFDFAE04D017
:101180000001916B912B02D00001916B00019151F4
:101190000101246F0101256B06D0000E0101256FAE
:1011A000000E0101246F010125512411D8A4DED7BE
:1011B000140E0501406F010E00018A6F0501050E36
:1011C00000018C6F0501400E00018B6F400E000185
:1011D0008D6F010EA2EC17F000018AC02BF0000108
:1011E0008BC02CF012002C502B10D8B413D02BC075
:1011F000D9FF2CC0DAFFDFAE04D00001916B912B38
:1012000002D00001916B000191510001966F000125
:10121000976B06D0000E0001976F000E0001966FCD
:10122000000197519611D8A455D2100E0501406FB8
:1012300005014169010E00018A6F0501050E0001DB
:101240008C6F0501400E00018B6F400E00018D6F09
:10125000010EA2EC17F000018AC02BF000018BC038
:101260002CF02C502B10D8B413D02BC0D9FF2CC08D
:10127000DAFFDFAE04D00001916B912B02D00001A8
:10128000916B000191510001986F0001996B06D09C
:10129000000E0001996F000E0001986F0001995136
:1012A0009811D8A4DED72C502B10D8B413D02BC053
:1012B000D9FF2CC0DAFFDFAE04D00001916B912B77
:1012C00002D00001916B0001915100019A6F000161
:1012D0009B6B06D0000E00019B6F000E00019A6F01
:1012E00000019B519A11D8A4F5D19E96C5809EA667
:1012F000FED79E9605010351070AD8A420D002C547
:10130000C9FF9EA6FED79E96C5AC5ED0C5849EA69C
:10131000FED79E96FD0E0501406F010E00018A6FFB
:101320000501050E00018C6F0501400E00018B6F59
:10133000400E00018D6F010EA2EC17F0DFD1050108
:1013400003510A0AD8A440D001C5C9FF9EA6FED702
:101350009E96C5AC19D0C5849EA6FED79E96FD0E5E
:101360000501406F010E00018A6F0501050E0001A5
:101370008C6F0501400E00018B6F400E00018D6FD8
:10138000010EA2EC17F0BAD102C5C9FF9EA6FED786
:101390009E96C5AC19D0C5849EA6FED79E96FD0E1E
:1013A0000501406F010E00018A6F0501050E000165
:1013B0008C6F0501400E00018B6F400E00018D6F98
:1013C000010EA2EC17F09AD1000E00019D6F000EE5
:1013D00000019C6F26D0070E00019C250001916F33
:1013E000000E00019D210001926F0501000E000119
:1013F0009125D96E0501050E00019221DA6EDF50AC
:10140000C96E9EA6FED79E96C5AC08D0C5849EA682
:10141000FED79E96FD0E0501406F76D100019C4BD4
:101420009D2B050104510001916F926B00019D51AC
:10143000800A0001936F915100019C5D000192515F
:10144000800A00019359D8A0C6D705014051FD0A72
:10145000D8A412D0010E00018A6F0501050E00010B
:101460008C6F0501400E00018B6F400E00018D6FE7
:10147000010EA2EC17F042D105010651D8B48CD070
:10148000C5829EA6FED79E9605010351070AD8A4E1
:101490002FD005010605D8A404D005010251010989
:1014A00008D005010651020AD8A404D00501025152
:1014B000FE0BC96E9EA6FED79E96C5AC6DD0C584A8
:1014C0009EA6FED79E96FD0E0501406F010E0001FF
:1014D0008A6F0501050E00018C6F0501400E0001A9
:1014E0008B6F400E00018D6F010EA2EC17F006D13C
:1014F000050103510A0AD8A44FD005010605D8A456
:1015000004D005010151010908D005010651020A64
:10151000D8A404D005010151FE0BC96E9EA6FED7CA
:101520009E96C5AC19D0C5849EA6FED79E96FD0E8C
:101530000501406F010E00018A6F0501050E0001D3
:101540008C6F0501400E00018B6F400E00018D6F06
:10155000010EA2EC17F0D2D002C5C9FF9EA6FED79D
:101560009E96C5AC19D0C5849EA6FED79E96FD0E4C
:101570000501406F010E00018A6F0501050E000193
:101580008C6F0501400E00018B6F400E00018D6FC6
:10159000010EA2EC17F0B2D005010551D8B496D0D7
:1015A000000E00019F6F000E00019E6F7BD0C5A44E
:1015B00004D00001916B912B02D00001916BC5A664
:1015C00004D00001926B922B02D00001926BC5A255
:1015D00004D00001936B932B02D00001936BC5A044
:1015E00004D00001946B942B02D00001946BC5A829
:1015F00004D00001956B952B02D00001956BC7A418
:1016000002D0010E01D0000E0001951100019411CD
:101610000001931100019211000191110009D8A459
:10162000C6D7C5869EA6FED79E96010E00019E25B2
:101630000001916F000E00019F210001926F0501D2
:10164000400E00019125D96E0501050E0001922181
:10165000DA6EC9CFDFFFFF0E0001916FFF0E926FB0
:10166000050105510001936F946B00019151000138
:101670009327000192510001942300019F51000122
:10168000941904E100019E5100019319D8A402D0DD
:10169000C58A01D0C59AC5889EA6FED79E96000130
:1016A0009E4B9F2B050105510001916F926B00012C
:1016B0009F51800A0001936F915100019E5D0001CE
:1016C0009251800A00019359D8A071D7C5849EA673
:1016D000FED79E96FC0E0501406F010E00018A6F39
:1016E0000501050E00018C6F0501400E00018B6F96
:1016F000400E00018D6F010EA2EC17F000018AC0B0
:101700002BF000018BC02CF012002C502B10D8B401
:1017100013D02BC0D9FF2CC0DAFFDFAE04D00001FC
:10172000916B912B02D00001916B0001915100014E
:10173000946F0001956B06D0000E0001956F000EAE
:101740000001946F000195519411D8A45BD20C0E46
:101750000501406F05014169010E00018A6F050115
:10176000050E00018C6F0501400E00018B6F400ECD
:1017700000018D6F010EA2EC17F000018AC02BF062
:1017800000018BC02CF02C502B10D8B413D02BC0E0
:10179000D9FF2CC0DAFFDFAE04D00001916B912B92
:1017A00002D00001916B000191510001966F000180
:1017B000976B06D0000E0001976F000E0001966F28
:1017C000000197519611D8A4DED72C502B10D8B415
:1017D00013D02BC0D9FF2CC0DAFFDFAE04D000013C
:1017E000916B912B02D00001916B0001915100018E
:1017F000986F0001996B06D0000E0001996F000EE2
:101800000001986F000199519811D8A4E4D1000EFD
:1018100000019B6F000E00019A6F05010151050147
:10182000025DD8B005D00501000101C59AF004D0D1
:101830000501000102C59AF000019B6B000E00013A
:101840009D6F000E00019C6FB6D192A00BD09290BC
:101850008980100E0001916F940EE82EFED7912F13
:10186000FCD700D0899013D192A20BD0929289829A
:10187000100E0001916F940EE82EFED7912FFCD729
:1018800000D0899204D192A40BD092948984100E36
:101890000001916F940EE82EFED7912FFCD700D057
:1018A0008994F5D092A60BD092968986100E0001ED
:1018B000916F940EE82EFED7912FFCD700D0899619
:1018C000E6D092A80BD092988988100E0001916FF3
:1018D000940EE82EFED7912FFCD700D08998D7D050
:1018E00092AA0BD0929A898A100E0001916F940EE1
:1018F000E82EFED7912FFCD700D0899AC8D093A4A8
:101900000BD093948A84100E0001916F940EE82EF0
:10191000FED7912FFCD700D08A94B9D093A60BD0D4
:1019200093968A86100E0001916F940EE82EFED7D2
:10193000912FFCD700D08A96AAD093A80BD0939869
:101940008A88100E0001916F940EE82EFED7912F19
:10195000FCD700D08A989BD093AA0BD0939A8A8AFE
:10196000100E0001916F940EE82EFED7912FFCD738
:1019700000D08A9A8CD093AC0BD0939C8A8C100E9A
:101980000001916F940EE82EFED7912FFCD700D066
:101990008A9C7DD093AE0BD0939E8A8E100E000150
:1019A000916F940EE82EFED7912FFCD700D08A9E1F
:1019B0006ED094A00BD094908B80100E0001916F8C
:1019C000940EE82EFED7912FFCD700D08B905FD0DD
:1019D00094A20BD094928B82100E0001916F940E02
:1019E000E82EFED7912FFCD700D08B9250D094A434
:1019F0000BD094948B84100E0001916F940EE82EFE
:101A0000FED7912FFCD700D08B9441D094AC0BD053
:101A1000949C8B8C100E0001916F940EE82EFED7D3
:101A2000912FFCD700D08B9C32D005010351000AC6
:101A3000D8B40BD7010AD8B417D7030AD8B423D720
:101A4000010AD8B42FD7070AD8B43BD7010AD8B4B3
:101A500047D7030AD8B453D7010AD8B45FD70F0ABF
:101A6000D8B46BD7010AD8B477D7030AD8B483D7D0
:101A7000010AD8B48FD7070AD8B49BD7010AD8B4C3
:101A8000A7D7030AD8B4B3D7010AD8B4BFD7050182
:101A900002510001916F926B00019D51800A00017B
:101AA000936F0001915100019C5D00019251800AE9
:101AB00000019359D8B019D0040E00019C250001F3
:101AC000916F000E00019D210001926F0501000E33
:101AD00000019125D96E0501050E00019221DA6EF3
:101AE000DF50C96EC7A0FED704D0A90EC96EC7A02B
:101AF000FED70501400E00019C25D96E0501050E9B
:101B000000019D21DA6EC9CFDFFF20D0898050D03F
:101B100089824ED089844CD089864AD0898848D021
:101B2000898A46D08A8444D08A8642D08A8840D026
:101B30008A8A3ED08A8C3CD08A8E3AD08B8038D02C
:101B40008B8236D08B8434D08B8C32D005010351FC
:101B5000000AD8B4DBD7010AD8B4DAD7030AD8B45C
:101B6000D9D7010AD8B4D8D7070AD8B4D7D7010A29
:101B7000D8B4D6D7030AD8B4D5D7010AD8B4D4D7A5
:101B80000F0AD8B4D3D7010AD8B4D2D7030AD8B42D
:101B9000D1D7010AD8B4D0D7070AD8B4CFD7010A11
:101BA000D8B4CED7030AD8B4CDD7010AD8B4CCD78D
:101BB00000019C4B9D2B00019D51800A0001916FFB
:101BC00000019A5100019C5D00019B51800A0001B7
:101BD0009159D8A02AD7010E00018A6F0501050E80
:101BE00000018C6F0501400E00018B6F400E00015B
:101BF0008D6F010EA2EC17F000018AC02BF00001DE
:101C00008BC02CF0120004012205D8A411D00401CD
:101C100020511F0B0009D8A40BD00001C88F04016C
:101C20002151030AD8A402D0010E01D0000E326E59
:101C30000401226777D1040120511F0B020AD8A4A6
:101C400071D1040124510F0B0009D8B46BD10401E8
:101C500024510F0B00016E6F020E00016E5DD8B0B3
:101C600061D13750200AD8A45DD10001C88F04018A
:101C700024BF25D0040124510F0B00016E6F000119
:101C80006E51020D0001AF0EF324D96E0001000E5B
:101C9000F420DA6E0001DECF74F00001DDCF75F0C4
:101CA000040124510F0B00016E6F00016E51010DF4
:101CB0000001C10EF324D96E0001000E24D00401EE
:101CC00024510F0B00016E6F00016E51020D0001D7
:101CD000AB0EF324D96E0001000EF420DA6E000181
:101CE000DECF74F00001DDCF75F0040124510F0B3D
:101CF00000016E6F00016E51010D0001BF0EF32453
:101D0000D96E0001000EF420DA6EDF500001736F0F
:101D1000000173B103D00001749502D000017485F5
:101D2000040124BF0FD0040124510F0B00016E6F7A
:101D300000016E51020D0001AF0EF324D96E0001B7
:101D4000000E0ED0040124510F0B00016E6F000134
:101D50006E51020D0001AB0EF324D96E0001000E8E
:101D6000F420DA6E000174C0DEFF000175C0DDFFF3
:101D700004012151030AD8A437D074C0D9FF75C01B
:101D8000DAFFDFAE24D0040124BF0FD004012451B8
:101D90000F0B00016E6F00016E51010D0001C10EAD
:101DA000F324D96E0001000E0ED0040124510F0B54
:101DB00000016E6F00016E51010D0001BF0EF32492
:101DC000D96E0001000EF420DA6E0001DF8274C0CB
:101DD000D9FF75C0DAFF000EDB8474C0D9FF75C06F
:101DE000DAFF000EDB8E9ED0040E0001741B74C05F
:101DF000D9FF75C0DAFFDFAE21D074C0D9FF75C03E
:101E0000DAFF7F0EDF1674C0D9FF75C0DAFF000E4F
:101E1000DB8C000E0001676F050E0001666F00018C
:101E200075C069F0000174C068F0000E00016B6FAE
:101E3000020E00016A6F2AEC1EF006D074C0D9FFB2
:101E400075C0DAFF000EDB8C040E0001741B00016C
:101E500073B306D074C0D9FF75C0DAFFDFAE3FD0D0
:101E6000040124BF0FD0040124510F0B00016E6F39
:101E700000016E51010D0001C10EF324D96E000165
:101E8000000E0ED0040124510F0B00016E6F0001F3
:101E90006E51010D0001BF0EF324D96E0001000E3A
:101EA000F420DA6E0001DF9274C0D9FF75C0DAFF4A
:101EB0003B0EDF16000E0001676F050E0001666F16
:101EC000000175C069F0000174C068F0000E0001E7
:101ED0006B6F020E00016A6F2AEC1EF006D074C010
:101EE000D9FF75C0DAFF3B0EDF16040124510F0B3A
:101EF00000016E6F00016E51010D700E00016F6FD9
:101F00000F0E706FF35000016F27F4500001702323
:101F10006FC071F070C072F071C0D9FF72C0DAFF8B
:101F2000FE0EDF161200A09A000E6A6E000E686E9A
:101F3000000E706E0F0E00018B6F710E00018A6F24
:101F4000000E00018D6F000E00018C6F000E00016D
:101F50008F6F010E00018E6F6FEC1FF0160E6F6E0B
:101F60009F0E6B6E7B0E696E000E0001926F11D09A
:101F700000019251040D0401000EF324D96E0401F6
:101F8000040EF420DA6EDE6ADE6ADE6ADD6A0001C3
:101F9000922B070E00019265EBD76D8C000E6E6ED2
:101FA0006D986D9C6896000E0001C86F000E0001D0
:101FB000A66F000E0001A86F000E0001A76F68B6A3
:101FC000F1D7010E386E010E396E000E346E000E20
:101FD000356E000E336E000E0001926F3AD0000194
:101FE0009251020D0001AB0EF324D96E0001000ED8
:101FF000F420DA6E000EDE6E000EDD6E00019251EE
:10200000020D0001AF0EF324D96E0001000EF42082
:10201000DA6E000EDE6E000EDD6E00019251010DD3
:102020000001BF0EF324D96E0001000EF420DA6E19
:10203000000EDF6E00019251010D0001C10EF3246C
:10204000D96E0001000EF420DA6E000EDF6E000182
:10205000922B010E00019265C2D70401040E00010B
:10206000AC6F0401080E0001AB6F160E706E040E0B
:102070000401036F200E0401026F080E0401016FBA
:10208000040E0401006F0401008F000E3F6E000E6D
:10209000256E000E266E000E276E000E286E000EB6
:1020A0003B6E000E376E1200A09A000E6A6E000E94
:1020B000686E000E706E0F0E1E6E710E1D6E000E9D
:1020C000206E000E1F6E000E226E010E216E0CECB3
:1020D00020F0160E6F6E9F0E6B6E7B0E696E000EFB
:1020E0000001606F11D000016051040D0401000E69
:1020F000F324D96E0401040EF420DA6EDE6ADE6A7F
:10210000DE6ADD6A0001602B070E00016065EBD717
:102110006D8C000E6E6E6D986D9C6896000E0001C1
:10212000C86F000E0001A66F000E0001A86F000E20
:102130000001A76F68B6F1D7010E386E010E396E37
:10214000000E346E000E356E000E336E000E000170
:10215000606F3AD000016051020D0001AB0EF32414
:10216000D96E0001000EF420DA6E000EDE6E000E55
:10217000DD6E00016051020D0001AF0EF324D96E37
:102180000001000EF420DA6E000EDE6E000EDD6E31
:1021900000016051010D0001BF0EF324D96E000152
:1021A000000EF420DA6E000EDF6E00016051010DAA
:1021B0000001C10EF324D96E0001000EF420DA6E86
:1021C000000EDF6E0001602B010E00016065C2D7BA
:1021D0000401040E0001AC6F0401080E0001AB6F96
:1021E000160E706E040E0401036F200E0401026FC0
:1021F000080E0401016F040E0401006F0401008F3A
:10220000000E3F6E000E256E000E266E000E276E2D
:10221000000E286E000E3B6E000E376E12002C5022
:102220002B10D8B413D02BC0D9FF2CC0DAFFDFAEEF
:1022300004D00001916B912B02D00001916B000141
:1022400091510001966F0001976B06D0000E0001BE
:10225000976F000E0001966F000197519611D8A458
:1022600092D005010251660AD8B437D00501025157
:10227000AF0AD8B432D005010251B20AD8B42DD079
:1022800005010251BB0AD8B428D005010251BE0A8B
:10229000D8B423D005010251C30AD8B41ED0050119
:1022A0000251CE0AD8B419D005010251D60AD8B4C9
:1022B00014D005010251D90AD8B40FD0050102513A
:1022C000E10AD8B40AD005010251E90AD8B405D010
:1022D00005010251F30AD8A42BD00001E9CF92F0F6
:1022E0000001936B0001EACF94F00001956B0F0E93
:1022F000EA6E02C5E9FFEECF43F5EFCF44F5010EDC
:102300000501406F01C541F502C542F5010E00010E
:102310008A6F0501050E00018C6F0501400E00015A
:102320008B6F400E00018D6F010EA2EC17F021D0D3
:102330000F0EEA6E02C5E9FFEFCF43F5000E05016F
:10234000446F010E0501406F01C541F502C542F51C
:10235000010E00018A6F0501050E00018C6F050159
:10236000400E00018B6F400E00018D6F010EA2EC3C
:1023700017F000018AC02BF000018BC02CF092C036
:10238000E9FF94C0EAFF12002C502B10D8B413D0F0
:102390002BC0D9FF2CC0DAFFDFAE04D00001916B57
:1023A000912B02D00001916B000191510001966FB9
:1023B0000001976B06D0000E0001976F000E000120
:1023C000966F000197519611D8A48FD00501025144
:1023D000660AD8B437D005010251AF0AD8B432D05A
:1023E00005010251B20AD8B42DD005010251BB0A31
:1023F000D8B428D005010251BE0AD8B423D00501B3
:102400000251C30AD8B41ED005010251CE0AD8B475
:1024100019D005010251D60AD8B414D005010251D1
:10242000D90AD8B40FD005010251E10AD8B40AD0B4
:1024300005010251E90AD8B405D005010251F30A99
:10244000D8A42BD00001E9CF92F00001936B0001DA
:10245000EACF94F00001956B0F0EEA6E02C5E9FF1A
:1024600003C5EEFF04C5EFFF020E0501406F01C575
:1024700041F502C542F5010E00018A6F0501050E06
:1024800000018C6F0501400E00018B6F400E0001B2
:102490008D6F010EA2EC17F01ED00F0EEA6E02C572
:1024A000E9FF03C5EFFF020E0501406F01C541F5CD
:1024B00002C542F5010E00018A6F0501050E0001FB
:1024C0008C6F0501400E00018B6F400E00018D6F77
:1024D000010EA2EC17F000018AC02BF000018BC0A6
:1024E0002CF092C0E9FF94C0EAFF12002C502B1090
:1024F000D8B413D02BC0D9FF2CC0DAFFDFAE04D084
:102500000001916B912B02D00001916B0001915160
:102510000001926F0001936B06D0000E0001936FD3
:10252000000E0001926F000193519211D8A48CD03B
:10253000070E0501406F05014169010E00018A6F18
:102540000501050E00018C6F0501400E00018B6F27
:10255000400E00018D6F010EA2EC17F000018AC041
:102560002BF000018BC02CF02C502B10D8B413D0C2
:102570002BC0D9FF2CC0DAFFDFAE04D00001916B75
:10258000912B02D00001916B000191510001946FD9
:102590000001956B06D0000E0001956F000E000142
:1025A000946F000195519411D8A4DED72C502B10B4
:1025B000D8B413D02BC0D9FF2CC0DAFFDFAE04D0C3
:1025C0000001916B912B02D00001916B00019151A0
:1025D0000001966F0001976B06D0000E0001976F07
:1025E000000E0001966F000197519611D8A42CD0CF
:1025F00001C591F0000191479147C2500001911926
:10260000C30B9119C26EC282C2B2FED7070E05017A
:10261000406FC3CF41F5C4CF42F5010E00018A6F70
:102620000501050E00018C6F0501400E00018B6F46
:10263000400E00018D6F010EA2EC17F000018AC060
:102640002BF000018BC02CF012000001BE51BD1117
:10265000D8B413D0BDC0D9FFBEC0DAFFDFAE04D0FE
:102660000001A06BA02B02D00001A06B0001A051C3
:102670000001A16F0001A26B06D0000E0001A26F45
:10268000000E0001A16F0001A251A111D8B437D0F2
:1026900085D00FEC11F06BD0C4EC11F068D0EAECEF
:1026A00019F065D076EC12F062D05DEC1EF05FD0D0
:1026B00012EC1FF05CD085EC0BF059D022EC16F038
:1026C00056D055EC20F053D0F3EC08F050D0E9ECA4
:1026D0001EF04DD04BEC20F04AD0F5EC1FF047D067
:1026E0001BEC1BF044D0BDEC1DF041D084EC1DF080
:1026F0003ED080EC19F03BD064EC04F038D00501FA
:102700000051010AD8B4C5D7030AD8B4C5D7040A02
:10271000D8B4C5D7010AD8B4C5D70F0AD8B4C5D71D
:10272000020AD8B4C5D7060AD8B4C5D7010AD8B4A6
:10273000C5D7030AD8B4C5D71E0AD8B4C5D7010A6D
:10274000D8B4C5D7030AD8B4C5D7010AD8B4C5D7F9
:10275000070AD8B4C8D7010AD8B4C8D7030AD8B46E
:10276000BFD7010AD8B4C5D7E80AD8B4C5D7000E78
:1027700000018A6F0501050E00018C6F0501000E36
:1027800000018B6F400E00018D6F010EA2EC17F05F
:1027900000018AC0BDF000018BC0BEF012003704FA
:1027A000D8B46DBA06D0000E686E69806988020ED2
:1027B000376E68B469A403D0689431EC1FF06DB231
:1027C00096D068B069A006D054EC10F0A08A040E30
:1027D000376E689068B869A802D08BEC1FF068ACBF
:1027E00020D069AC14D0000E0001676F730E000199
:1027F000666F000E0001696F000E0001686F000E29
:1028000000016B6F010E00016A6F2AEC1EF0689CDC
:1028100033EC20F03A50D8A43A063A6602D0E2EC03
:102820001BF068BA69AA02D050EC1FF068B269A226
:1028300015D07F0E0001676F00016669000E000170
:10284000696F000E0001686F000E00016B6F010ED2
:1028500000016A6F2AEC1EF0000E6A6E040E375CEF
:10286000D8B069A644D0000E00017B6F3CD068A6AA
:102870003ED06CCF41F04130E832E8320F0B3D6E74
:10288000689641B409D03D50010D0001C10EF324FA
:10289000D96E0001000E08D03D50010D0001BF0EA1
:1028A000F324D96E0001000EF420DA6E0001DF700F
:1028B0003D6603D096EC18F014D0000E0001676F4F
:1028C000720E0001666F000E0001696F410E00017B
:1028D000686F000E00016B6F000E00016A6F2AEC3A
:1028E0001EF000017B2B030E00017B65C0D7A19A6F
:1028F000120004012051800AD8A499D0C00E000112
:10290000C86F89D0080E0001C66FB10E0001C56FF7
:10291000000E0001CA6F120E0001C96F88D00401B9
:10292000226775D004012251020D070EF324F66EC2
:10293000080EF420F76E09000001F5CFC5F00A007B
:102940000001F5CFC6F0020E0001C5251D6E000E78
:102950000001C6211E6E1DC0F6FF1EC0F7FFF86AFB
:10296000070EF76403D00800F55005D0F6CFE1FF5D
:10297000F7CFE2FFE7500001C96F030E0001C52544
:102980001D6E000E0001C6211E6E1DC0F6FF1EC08A
:10299000F7FFF86A070EF76403D00800F55005D07A
:1029A000F6CFE1FFF7CFE2FFE7500001CA6F3FD05B
:1029B000030E0401225DD8B02AD004012251020D79
:1029C000010EF324F66E080EF420F76E09000001E4
:1029D000F5CFC5F00A000001F5CFC6F00001C5C073
:1029E000F6FF0001C6C0F7FFF86A070EF76403D0D0
:1029F0000800F55005D0F6CFE1FFF7CFE2FFE75032
:102A00001D6E1D500001C96F0001CA6B10D0000E71
:102A10000001C86F0CD004012351010AD8B472D749
:102A2000030AD8B47CD7010AD8B4C2D7F0D71200B1
:102A300020EE01F02D50D9262E50DA22DF501E6EE6
:102A40001E500001A75D000E0001A859D8A0A7C024
:102A50001EF01E500001A75F000E0001A85B000ED3
:102A60001D6E14D01D50010D0401280EF324D96EE3
:102A70000401040EF420DA6EA3C0E1FFA4C0E2FF5B
:102A8000DFCFE7FF0001A34BA42B1D2A1E501D5CC6
:102A9000D8A0E8D70001A851A711D8B42BD020EEB8
:102AA00001F02F50D9263050DA22080EDF6E20EECA
:102AB00002F02F50D9263050DA22280EDE6E040E96
:102AC000DD6E2DC0D9FF2EC0DAFFDFBC06D02FC0CF
:102AD000D9FF30C0DAFF480E05D02FC0D9FF30C073
:102AE000DAFF080EDF6E2FC0D9FF30C0DAFF000E0C
:102AF000DB8E24D020EE01F02F50D9263050DA2280
:102B0000080EDF6E20EE02F02F50D9263050DA2268
:102B1000200EDE6E040EDD6E2FC0D9FF30C0DAFF4E
:102B2000040EDF6E2FC0D9FF30C0DAFF000EDB8E3F
:102B30000001A69F366602D0E2EC1BF012000001F5
:102B4000C88F0F0E1E6E710E1D6E000E206E000ED1
:102B50001F6E000E226E010E216E0CEC20F004019F
:102B6000040E1E6E0401000E1D6E000E206E000E7F
:102B70001F6E000E226E200E216E0CEC20F06D8C6C
:102B8000000E00016E6F1CD000016E51010D00019E
:102B9000BF0EF324D96E0001000EF420DA6E000E91
:102BA000DF6E00016E51010D0001C10EF324D96EDC
:102BB0000001000EF420DA6E000EDF6E00016E2BB5
:102BC000010E00016E65E0D7000E1E6E400E1D6EF8
:102BD000000E206E000E1F6E000E226E010E216E82
:102BE0000CEC20F06D9C0401040E0001AC6F04019C
:102BF000080E0001AB6F0401040E2E6E0401000EDE
:102C00002D6E2EC030F02DC02FF022C43FF03F6655
:102C100002D0100E15D0000E0001676F010E0001EA
:102C2000666F000E0001696F3F0E0001686F000EB5
:102C300000016B6F010E00016A6F2AEC1EF0200E7E
:102C4000376E12000001E9CFBBF00001BC6B000140
:102C5000EACFB9F00001BA6B0F0EEA6E02C5E9FFC8
:102C600005010405D8B419D032D00F01EF802FD060
:102C70000F01EF822CD00F01EF8429D00F01EF86D6
:102C800026D00F01EF8823D00F01EF8A20D00F014B
:102C9000EF8C1DD00F01EF8E1AD005010351000AF1
:102CA000D8B4E3D7010AD8B4E3D7030AD8B4E3D73A
:102CB000010AD8B4E3D7070AD8B4E3D7010AD8B4D5
:102CC000E3D7030AD8B4E3D7010AD8B4E3D70501A0
:102CD000046733D018D00F01EF902FD00F01EF927F
:102CE0002CD00F01EF9429D00F01EF9626D00F01C1
:102CF000EF9823D00F01EF9A20D00F01EF9C1DD049
:102D00000F01EF9E1AD005010351000AD8B4E3D792
:102D1000010AD8B4E3D7030AD8B4E3D7010AD8B478
:102D2000E3D7070AD8B4E3D7010AD8B4E3D7030A34
:102D3000D8B4E3D7010AD8B4E3D7BBC0E9FFB9C020
:102D4000EAFF120004012039E832030B0009D8A47D
:102D500078D056D00001C88F080E376E72D079EC4B
:102D600014F06FD09FEC15F06CD0000E0001C66F10
:102D70003F0E0001C56F18D07FEC1BF062D003EC52
:102D80000EF05FD004012451010D400E0001766F5A
:102D9000000E776FF35000017627F450000177237F
:102DA00076C0C5F077C0C6F00001C881010E0001F1
:102DB000C96F0001C88F45D00001C88F040124519C
:102DC000010D400EF324D96E000EF420DA6E0401DA
:102DD00022C4DFFF36D0000E0001676F020E000133
:102DE000666F000E0001696F000E0001686F000E33
:102DF00000016B6F000E00016A6F2AEC1EF021D0FB
:102E000004012151000AD8B4B7D7010AD8B4B7D702
:102E1000020AD8B4B4D7060AD8B49CD7030AD8B4E7
:102E20009ED7010AD8B4D7D70F0AD8B49ED7010AC3
:102E3000D8B498D7030AD8B4A5D7010AD8B4BCD758
:102E4000070A1200040120511F0B1D6E1D04D8A497
:102E500078D004012451D8A474D004012151060A69
:102E6000D8B41FD027D03F04D8A424D0080E000126
:102E7000C66F7D0E0001C56F000E0001CA6F090EFE
:102E80000AD0080E0001C66F940E0001C56F000E37
:102E90000001CA6F1D0E0001C96FC00E0001C86F8E
:102EA00009D004012351210AD8B4DDD7030AD8B4CC
:102EB000E8D7010A04012039E832030B1D6E1D0416
:102EC000D8A43FD02AD0000E0001C66F430E0001E7
:102ED000C56F000E0001CA6F010E0001C96FC10E5F
:102EE00013D0800E0001C86F23C443F02AD0000E17
:102EF0000001C66F420E0001C56F000E0001CA6FCF
:102F0000010E0001C96F810E0001C86F1AD0800E3A
:102F10000001C86F22C442F014D004012151010AFB
:102F2000D8B40FD0030AD8B4CED7010AD8B4DFD7AB
:102F30000A0AD8B406D0030AD8B4D3D7010AD8B441
:102F4000E6D7120000018E6F00018A51D8B40AD072
:102F500000018E51020D0001AB0EF324D96E000169
:102F6000000E09D000018E51020D0001AF0EF324B6
:102F7000D96E0001000EF420DA6E0001DECF8FF072
:102F80000001DDCF90F0000190518F11D8A407D03F
:102F9000000E00018B6F000E00018A6F4ED0000101
:102FA00020EE02F000018F51D92600019051DA2263
:102FB00000018BC0DEFF00018CC0DDFF000120EEB0
:102FC00001F000018F51D92600019051DA22000151
:102FD0008DC0DFFF8FC0D9FF90C0DAFF400EDF1633
:102FE0008FC0D9FF90C0DAFF000EDB868FC0D9FFFB
:102FF00090C0DAFF000EDB8E00018A51D8B40AD0EF
:1030000000018E51020D0001AB0EF324D96E0001B8
:10301000000E09D000018E51020D0001AF0EF32405
:10302000D96E0001000EF420DA6E040EDF1A0001E2
:1030300090C08BF000018FC08AF012006D980001E3
:10304000C8BF39D00001A6AF0BD0020E3C6E35666A
:1030500002D0E6EC1CF0000E396E000E386E65D022
:1030600020EE01F02F50D9263050DA22080EDF6E04
:1030700020EE02F02F50D9263050DA22200EDE6EDC
:10308000040EDD6E2FC0D9FF30C0DAFF0C0EDF6EEC
:103090002FC0D9FF30C0DAFF000EDB8EABC0D9FFE6
:1030A000ACC0DAFF040EDF6EABC0D9FFACC0DAFFF4
:1030B000000EDB8E3AD0040120AF0FD0010E3C6E23
:1030C000346602D0E6EC1CF0000E396E000E386E4D
:1030D00036662BD0E2EC1BF028D0020E3C6E20EEC0
:1030E00001F02F50D9263050DA22080EDF6E20EE84
:1030F00002F02F50D9263050DA22200EDE6E040E58
:10310000DD6E2FC0D9FF30C0DAFF040EDF6E2FC096
:10311000D9FF30C0DAFF000EDB8E000E396E000ED4
:10312000386E366602D0E2EC1BF012002D0E3A6EBD
:1031300041C078F0FD0E00017817D8A461D041C0DD
:1031400078F00001D89078333F0E00017817000125
:103150007851040D0401000EF3242D6E0401040EB9
:10316000F4202E6E2EC030F02DC02FF0040E2F1A3A
:103170002DC0D9FF2EC0DAFFDF30E8320F0B0D0A69
:10318000D8A43BD0000E00017A6F26D020EE02F0CA
:103190002D50D9262E50DA22DECF78F0DDCF79F00F
:1031A00078C0D9FF79C0DAFF00017A51010D04011E
:1031B000200EF324E16E0401040EF420E26EDFCF52
:1031C000E7FF20EE02F02D50D9262E50DA22DE2A1B
:1031D000000EDD2200017A2B070E00017A65D6D79A
:1031E00020EE02F02D50D9262E50DA22200EDE6E6F
:1031F000040EDD6E97EC1CF00ED0BCEC1EF00BD074
:1032000041C078F0FD0E0001781700017851040AE2
:10321000D8B444EC1CF01200080E1D6E080E00011C
:10322000C95D000E0001CA59D8B00BD0C9C01DF04D
:103230003E6602D0010E04D03E04D8A402D0020E95
:103240003E6E1D500001C95F000E0001CA5B000107
:1032500020EE01F00001AB51D9260001AC51DA2279
:103260001DC0DFFF0401040E0001C46F0401280E1D
:103270000001C36F0001C8A11FD03FD00001C5C02D
:10328000F6FF0001C6C0F7FFF86AC3C0D9FFC4C08B
:10329000DAFF070EF76403D00800F55005D0F6CF2B
:1032A000E1FFF7CFE2FFE750DF6E0001C54BC62B11
:1032B0000001C34BC42B1D061D66E0D720D00001C2
:1032C000C5C0F6FF0001C6C0F7FFF86AC3C0D9FF4A
:1032D000C4C0DAFF070EF76403D00800F55005D02C
:1032E000F6CFE1FFF7CFE2FFE750DF6E0001C54BFD
:1032F000C62B0001C34BC42B1D061D66E0D7120070
:1033000005010151FB0AD8A45BD09E9C9D8CF28CD8
:10331000000E2A6E000E296E000E0001B86F000E1E
:103320000001B76F2AD0C294C296C298C29A45D003
:10333000C250C30B04091FD0C250C30B08091BD0D5
:10334000C250C30B0C0917D0C250C30B100913D0C5
:10335000C250C30B20090FD0C250C30B24090BD09D
:10336000C250C30B280907D0C250C30B2C0903D08D
:10337000C250C30B3009C26E20D005010151000AB2
:10338000D8B4D1D7010AD8B4D3D7030AD8B4D4D784
:10339000010AD8B4D5D7070AD8B4D6D70C0AD8B4FE
:1033A000D7D7010AD8B4D8D7030AD8B4D9D7010AD5
:1033B000D8B4DAD7070AD8B4DBD7C280C28209D022
:1033C00005010151FA0AD8A404D0C2909D9C9E9C8C
:1033D000F29C12000001C2CFB3F00001B46B0001F7
:1033E000C0CFB5F00001B66B0001B351030B05016E
:1033F0000111C26E02C5C1FF03C5C0FF20D02F0E50
:10340000926E1F0E0FD02F0E926E1E0E0BD02F0E2F
:10341000926E0D0E07D02F0E926E0C0E03D02F0E53
:10342000926E040E936E3CD02F0E07D00F0E05D077
:10343000070E03D0030E01D0010E926E31D0C150A1
:103440000F0B00018A6F8B6B00018B51000AD8A40F
:1034500027D000018A51000AD8B4D1D7010AD8B4C4
:10346000CED7030AD8B4CBD7010AD8B4CCD7070A31
:10347000D8B4CDD7010AD8B4CED7030AD8B4CFD7A1
:103480000C0AD8B4D1D7010AD8B4D0D7070AD8B417
:10349000CFD7010AD8B4CED7030AD8B4CDD7010A02
:1034A0001200056E0150D8B409D00550020D00017C
:1034B000AB0EF324D96E0001000E08D00550020DAA
:1034C0000001AF0EF324D96E0001000EF420DA6E75
:1034D000DECF06F0DDCF07F007500610D8A405D0E8
:1034E000000E026E000E016E40D020EE02F006507B
:1034F000D9260750DA2202C0DEFF03C0DDFF20EE2E
:1035000001F00650D9260750DA2204C0DFFF06C0BA
:10351000D9FF07C0DAFF400EDF1606C0D9FF07C08B
:10352000DAFF000EDB8606C0D9FF07C0DAFF000E07
:10353000DB8E0150D8B409D00550020D0001AB0E4E
:10354000F324D96E0001000E08D00550020D0001D1
:10355000AF0EF324D96E0001000EF420DA6E040ED3
:10356000DF1A07C002F006C001F01200216E1D50E4
:10357000D8B409D02150020D0001AB0EF324D96E4E
:103580000001000E08D02150020D0001AF0EF324FF
:10359000D96E0001000EF420DA6EDECF22F0DDCF0E
:1035A00023F023502210D8A405D0000E1E6E000E6A
:1035B0001D6E40D020EE02F02250D9262350DA2290
:1035C0001EC0DEFF1FC0DDFF20EE01F02250D92615
:1035D0002350DA2220C0DFFF22C0D9FF23C0DAFF48
:1035E000400EDF1622C0D9FF23C0DAFF000EDB86B3
:1035F00022C0D9FF23C0DAFF000EDB8E1D50D8B4E5
:1036000009D02150020D0001AB0EF324D96E000148
:10361000000E08D02150020D0001AF0EF324D96E28
:103620000001000EF420DA6E040EDF1A23C01EF033
:1036300022C01DF012000001E9CFBBF00001BC6BFD
:103640000001EACFB9F00001BA6B0F0EEA6E02C5B5
:10365000E9FF1CD0EFB006D015D0EFB203D012D0E6
:10366000EFA410D0010E0FD0EFA60CD0FBD7EFB80F
:10367000F9D708D0EFAA06D0F5D7EFAC03D0F2D730
:10368000EFBEF0D7000E0501416F1AD005010351BE
:10369000000AD8B4DFD7010AD8B4DFD7030AD8B4F8
:1036A000DFD7010AD8B4E0D7070AD8B4E0D7010AB7
:1036B000D8B4E0D7030AD8B4E0D7010AD8B4E0D729
:1036C000BBC0E9FFB9C0EAFF160E0501406F010E4D
:1036D00000018A6F0501050E00018C6F0501400E87
:1036E00000018B6F400E00018D6F010EA2EC17F0F0
:1036F00000018AC02BF000018BC02CF01200000EDC
:103700000401286F000E0401296F3FD00001C88F0B
:103710003204D8A446D00401288343D00001C88FC6
:1037200040D00001C88F040124BF0DD004012451F2
:103730000F0B1D6E1D50020D0001AF0EF324D96E4C
:103740000001000E0CD0040124510F0B1D6E1D5002
:10375000020D0001AB0EF324D96E0001000EF4201F
:10376000DA6EDECF1EF0DDCF1FF01EC0D9FF1FC006
:10377000DAFFDFAE16D01EC0D9FF1FC0DAFFDFA40C
:1037800010D0010E0401286F0CD0040120511F0B32
:10379000000AD8B4BBD7010AD8B4C0D7030AD8B43A
:1037A000C0D70001C8AF0DD00401040E0001C66FE0
:1037B0000401280E0001C56F0001C881020E00013E
:1037C000C96F120038665FD0010E386E39665BD063
:1037D000010E396E3C50020AD8A418D0000120EE28
:1037E00001F00001AB51D9260001AC51DA22000EE4
:1037F000DF6EABC0D9FFACC0DAFF480EDF6EABC0E6
:10380000D9FFACC0DAFF000EDB8E3DD03C04D8A45B
:103810003AD0000E316E20EE01F02D50D9262E50F8
:10382000DA22080EDF6E20EE02F02D50D9262E503F
:10383000DA22200EDE6E040EDD6E2DC0D9FF2EC002
:10384000DAFF040EDF6E2DC0D9FF2EC0DAFF000EA6
:10385000DB8E010E316E20EE01F02F50D926305054
:10386000DA22080EDF6E20EE02F02F50D9263050FB
:10387000DA22200EDE6E040EDD6E2FC0D9FF30C0BE
:10388000DAFF800EDF6E1200ABC0D9FFACC0DAFFEA
:10389000000EDFBC010E1E6E040E0001AB1B375084
:1038A000080AD8A40BD0040122517F0B6E6E6E5013
:1038B000D8B402D0100E01D0040E376E3C04D8A448
:1038C0002ED0000120EE02F00001AB51D9260001FC
:1038D000AC51DA22280EDE6E040EDD6E0CEC19F00F
:1038E0003E50020AD8A406D0ABC0D9FFACC0DAFF64
:1038F000040E0DD01E6606D0ABC0D9FFACC0DAFFF7
:10390000480E05D0ABC0D9FFACC0DAFF080EDF6EA1
:10391000ABC0D9FFACC0DAFF000EDB8E07D00001D0
:10392000A6AF02D00001A69F000E3C6E1200000E52
:103930003E6E000E366E000E346E000E356E000EBA
:10394000316E000E3C6EABC0D9FFACC0DAFF7F0E0B
:10395000DF16040E0001AB1BABC0D9FFACC0DAFF11
:103960007F0EDF16040E0001AB1B2FC0D9FF30C045
:10397000DAFF7F0EDF16000E0001C86F000E000197
:10398000CA6F000E0001C96F000E0001A66F000E85
:103990000001A86F000E0001A76FA2EC16F0000E48
:1039A0000001676F030E0001666F000E0001696F72
:1039B000000E0001686F000E00016B6F000E000129
:1039C0006A6F2AEC1EF01EEC18F01200000E346E26
:1039D000000E356E3C50020AD8A41DD020EE01F036
:1039E0002F50D9263050DA22080EDF6E20EE02F07A
:1039F0002F50D9263050DA22280EDE6E040EDD6EEE
:103A00002FC0D9FF30C0DAFF480EDF6E2FC0D9FFBC
:103A100030C0DAFF27D00001C9510401265D000142
:103A2000CA5104012759D8B004D026C4C9F027C40C
:103A3000CAF00CEC19F0000120EE02F00001AB51CD
:103A4000D9260001AC51DA22280EDE6E040EDD6E9E
:103A5000ABC0D9FFACC0DAFF480EDF6EABC0D9FFF8
:103A6000ACC0DAFF000EDB8E1200226E0401040EE1
:103A7000246E0401000E236E1D501E6E1F6AD89026
:103A80001E361F362250206E216AD89020362136ED
:103A9000D890203621361E5020261F502122D89043
:103AA00020362136D890203621362050232621502A
:103AB000242223C0D9FF24C0DAFFDF9E1D6609D06F
:103AC0002250020D0001AF0EF324D96E0001000E4A
:103AD00008D02250020D0001AB0EF324D96E000174
:103AE000000EF420DA6E23C0DEFF24C0DDFF23C009
:103AF000D9FF24C0DAFFDF9C20EE04F02350D92642
:103B00002450DA22DF8C120005010105D8A402D06E
:103B1000AB8A04D00501016701D0AB88000E00011B
:103B20008E6F000E00018D6F12D09EBAFED79E9A46
:103B30000501400E00018D25D96E0501050E00011D
:103B40008E21DA6EAECFDFFF00018D4B8E2B05018B
:103B5000025100018A6F8B6B00018E51800A0001B7
:103B60008C6F8A5100018D5D00018B51800A00012C
:103B70008C59D8A0DAD7AB981200000E00018E6FD6
:103B8000000E00018D6F1BD0020E00018D2500017B
:103B90008A6F000E00018E2100018B6F0501000E5F
:103BA00000018A25D96E0501050E00018B21DA6E10
:103BB000DF50AD6EACA2FED700018D4B8E2B050100
:103BC000015100018A6F8B6B00018E51800A000148
:103BD0008C6F8A5100018D5D00018B51800A0001BC
:103BE0008C59D8B01200D0D70600EACF7FF0E1CFD1
:103BF00080F0E2CF81F0D9CF82F0DACF83F0F3CF3B
:103C000084F0F4CF85F0F6CF86F0F7CF87F0F8CFC9
:103C100088F0F5CF89F0CFEC13F089C0F5FF88C0AC
:103C2000F8FF87C0F7FF86C0F6FF85C0F4FF84C0A9
:103C3000F3FF83C0DAFF82C0D9FF81C0E2FF80C0FA
:103C4000E1FF7FC0EAFF7EC0E9FF7DC0FBFF7CC0D3
:103C5000FAFF110006D0A7EC1FF02ED022EC17F0CF
:103C60002BD0000166C06CF0000167C06DF0000150
:103C70006D51000AD8B404D07F0AD8B41AD01CD031
:103C800000016C51010AD8B4E6D7030AD8B414D0A5
:103C9000010AD8B4E3D7060AD8B40ED0770AD8B44C
:103CA0000BD0010AD8B408D0070AD8B405D0010A4D
:103CB00003D000016C51FF0A120001C5B4FF09D006
:103CC0000F0E01D0090E926E28D00B0EFCD7000EFD
:103CD000FAD7B450070B00018A6F8B6B00018B5130
:103CE000000AD8A41AD000018A51000AD8B4E8D733
:103CF000010AD8B4E7D7030AD8B4E2D7010AD8B486
:103D0000DFD7070AD8B4E1D7010AD8B4DED7030A4F
:103D1000D8B4D6D7010AD8B4DAD712000001656F3B
:103D2000000160A506D0000E1D6E0001655135EC46
:103D30001DF0000160A306D0010E1D6E000165514B
:103D400035EC1DF000016551010D700E0001616F31
:103D50000F0E626FF35000016127F45000016223DF
:103D600061C063F062C064F063C0D9FF64C0DAFF71
:103D7000000160C0DFFF12003C50020AD8A403D04B
:103D800018EC15F025D0000E3C6E31661FD020EEE9
:103D900001F02F50D9263050DA22080EDF6E20EEC7
:103DA00002F02F50D9263050DA22200EDE6E040E9B
:103DB000DD6E2FC0D9FF30C0DAFF0C0EDF6E2FC0D2
:103DC000D9FF30C0DAFF000EDB8E02D0000E316E5C
:103DD000120005010105D8A410D002C5BDFF080ED0
:103DE0000501025DD8B005D005010251020AD8A430
:103DF00002D0949416D0948414D005010151020A83
:103E0000D8A40FD002C5BAFF080E0501025DD8B0D4
:103E100005D005010251020AD8A402D0949201D023
:103E20009482120001C5C7FF02C5C6FF07D0938068
:103E3000939202D093809382949E12D0C6500C0B22
:103E400000018A6F8B6B00018B51000AD8A408D047
:103E500000018A51000AD8B4EAD7040AD8B4EAD7D4
:103E60001200000E336E000E0001676F740E000129
:103E7000666F000E0001696F000E0001686F000E92
:103E800000016B6F000E00016A6F2AEC1EF06D924C
:103E9000699401D0689468B4FDD7000E3B6E12009F
:103EA00070A01BD0800E2DC0D9FF2EC0DAFFDF62BC
:103EB00013D0840EABC0D9FFACC0DAFFDF620CD0E8
:103EC0002DC0D9FF2EC0DAFF0C0EDF6E2DC0D9FF3A
:103ED0002EC0DAFF000EDB8E7090689A120000018F
:103EE0008BC091F000018AC090F00AD090C0D9FF39
:103EF00091C0DAFF00018CC0DFFF0001904B912BD5
:103F000000018E07D8A08F0700018E29D8B48F2911
:103F1000D8B41200EBD7698468986D82010E336EB5
:103F2000000E3B6E000E0001676F750E0001666F9C
:103F3000000E0001696F000E0001686F000E0001A5
:103F40006B6F000E00016A6F2AEC1EF01200000E6B
:103F50002C6E000E2B6E1E0E0001606F010E8EEC9B
:103F60001EF0000E1D6E0501050E1F6E0501000EF0
:103F70001E6E400E206E010EB6EC1AF01DC0BDF094
:103F80001EC0BEF01200000E40EC20F093EC0FF0CB
:103F9000DEEC1FF0000E9F6E200EA26ED08EC18050
:103FA000C182C184C186B480B482B484200E375CDF
:103FB000D8B06DB2FBD725EC13F0F8D7376614D024
:103FC000000E6D6E000E696E160E6F6E9F0E6B6E9C
:103FD0007B0E696ED08EA28AA08AF28E01D06D8689
:103FE0006DA6FDD7010E376E120005010105D8A49C
:103FF00007D003C5BEFF05010251BD14BD6E0BD035
:1040000005010151020AD8A406D003C5BBFF050172
:104010000251BA14BA6E12001EC024F01DC023F063
:1040200008D023C0D9FF24C0DAFF1FC0DFFF234A16
:10403000242A2106D8A022062128D8B42228D8B4C0
:104040001200EFD700EEA3F0280EEE6AE806FDE1BD
:1040500000EE25F01F0EEE6AE806FDE1000EF86E98
:104060000001C3EF1FF0010E2526000E2622272295
:104070002822336604D03B2A3B6601D03B681200FD
:1040800000018A6F00018A51000AD8B403D0010AE6
:10409000D8A4030A120001C5CBFFCA5005010219BA
:1040A000FC0B05010219CA6E120001C5C7FF02C54B
:0C40B000C6FF03C5C8FF93809382120076
:020000040020DA
:08000000FFFFFFFFFFFFFFFF00
:020000040030CA
:0E00000020023F1EFF0181FF0FC00FE00F40E6
:00000001FF
