:0400000053EF00F0CA
:10000800FACF62F0FBCF63F0E9CF64F004ED21F0A2
:10001800D8CF01F0E8CF02F0E0CF03F0FACF04F038
:10002800FBCF05F0E9CF06F0EACF07F0E1CF08F003
:10003800E2CF09F0D9CF0AF0DACF0BF0F3CF0CF00A
:10004800F4CF0DF0F6CF0EF0F7CF0FF0F8CF10F099
:10005800F5CF11F041EC21F011C0F5FF10C0F8FF09
:100068000FC0F7FF0EC0F6FF0DC0F4FF0CC0F3FF82
:100078000BC0DAFF0AC0D9FF09C0E2FF08C0E1FFE0
:1000880007C0EAFF06C0E9FF05C0FBFF04C0FAFF8E
:1000980003C0E0FF02C0E8FF01C0D8FF100032EF44
:1000A80003F0176E0401040E196E0401000E186E99
:1000B8001250136E146AD890133614361750156EF2
:1000C800166AD89015361636D89015361636135047
:1000D800152614501622D89015361636D89015368F
:1000E8001636155018261650192218C0D9FF19C0EF
:1000F800DAFFDF9E126609D01750020D0001AD0E1F
:10010800F324D96E0001000E08D01750020D00012B
:10011800A90EF324D96E0001000EF420DA6E18C07F
:10012800DEFF19C0DDFF18C0D9FF19C0DAFFDF9C58
:1001380020EE04F01850D9261950DA22DF8C12006C
:10014800000E0001786F70C079F071C07AF072C04B
:100158007BF073C07CF02DD07BC0F8FF7AC0F7FF2E
:1001680079C0F6FFA68EA69CA684A688F2AE04D017
:10017800F29E010E0001786F550EA76EAA0EA76EAB
:10018800A68200017851D8A4F28E400E000179258C
:100198000001796F000E00017A2100017A6F000ECC
:1001A80000017B2100017B6F000E00017C21000112
:1001B8007C6F000174510001795D000175510001E7
:1001C8007A590001765100017B59000177510001ED
:1001D8007C59D8B01200C0D7000E496E000E416E8F
:1001E800000E3F6E000E406E000E3C6E000E476E15
:1001F800A9C0D9FFAAC0DAFF7F0EDF16040E0001DE
:10020800A91BA9C0D9FFAAC0DAFF7F0EDF16040E0A
:100218000001A91B3AC0D9FF3BC0DAFF7F0EDF16E9
:10022800000E0001C06F000E0001C26F000E000139
:10023800C16F000E0001A46F000E0001A66F000E32
:100248000001A56FB1EC1CF0000E216E030E206EAC
:10025800000E236E000E226E000E256E000E246E18
:10026800DFEC01F0C1EC1BF01200000E0001766F0C
:10027800000E0001756F1BD0020E000175250001EC
:10028800706F000E000176210001716F0501000EEC
:1002980000017025D96E0501050E00017121DA6E85
:1002A800DF50AD6EACA2FED70001754B762BFF0E6A
:1002B8000001706FFF0E716F050101510001726F2F
:1002C800736B000170510001722700017151000128
:1002D800732300017351800A0001746F0001755186
:1002E8000001725D00017651800A00017459D8A09E
:1002F8001200C2D701C5B4FF09D00F0E01D0090EF4
:10030800926E28D00B0EFCD7000EFAD7B450070B0C
:100318000001706F716B00017151000AD8A41AD0E6
:1003280000017051000AD8B4E8D7010AD8B4E7D759
:10033800030AD8B4E2D7010AD8B4DFD7070AD8B479
:10034800E1D7010AD8B4DED7030AD8B4D6D7010A50
:10035800D8B4DAD7120070C078F071C079F072C0E2
:100368007AF073C07BF0F8CF7EF0F7CF7DF0F6CF50
:100378007CF07AC0F8FF79C0F7FF78C0F6FF0AD0A2
:10038800090076C0D9FF77C0DAFFF5CFDFFF00019B
:10039800764B772B00017407D8A0750700017429E4
:1003A800D8B47529D8A4ECD77EC0F8FF7DC0F7FF74
:1003B8007CC0F6FF120006D0C5EC02F029D0C5ECCF
:1003C8001AF026D020C026F021C027F02750000AB6
:1003D800D8B404D07F0AD8B419D01AD02650010A4C
:1003E800D8B4EAD7030AD8B413D0010AD8B4E7D7E7
:1003F800060AD8B40DD0770AD8B40AD0010AD8B4FE
:1004080007D0070AD8B404D0010A02D02650FF0A40
:1004180012004750020AD8A403D0BEEC19F025D028
:10042800000E476E3C661FD020EE01F03A50D926E8
:100438003B50DA22080EDF6E20EE02F03A50D92641
:100448003B50DA22200EDE6E040EDD6E3AC0D9FF74
:100458003BC0DAFF0C0EDF6E3AC0D9FF3BC0DAFFB3
:10046800000EDB8E02D0000E3C6E12000501010565
:10047800D8A410D002C5BDFF080E0501025DD8B092
:1004880005D005010251020AD8A402D0949416D0CE
:10049800948414D005010151020AD8A40FD002C5D2
:1004A800BAFF080E0501025DD8B005D0050102515A
:1004B800020AD8A402D0949201D0948212001F6E2E
:1004C8001AA405D0000E126E1F5055EC00F01AA2A7
:1004D80005D0010E126E1F5055EC00F01F50010D93
:1004E800700E1B6E0F0E1C6EF3501B26F4501C2250
:1004F8001BC01DF01CC01EF01DC0D9FF1EC0DAFFB6
:100508001AC0DFFF120001C5C7FF02C5C6FF07D02A
:100518009380939202D093809382949E12D0C65077
:100528000C0B0001706F716B00017151000AD8A4A7
:1005380008D000017051000AD8B4EAD7040AD8B428
:10054800EAD7120070A01BD0800E38C0D9FF39C07E
:10055800DAFFDF6213D0840EA9C0D9FFAAC0DAFF80
:10056800DF620CD038C0D9FF39C0DAFF0C0EDF6E5D
:1005780038C0D9FF39C0DAFF000EDB8E7090689A58
:100588001200000E0001B46F000E0001B36F1E0EC2
:100598001A6E010E63EC02F0000E126E0501050ED4
:1005A800146E0501000E136E400E156E010E73ECED
:1005B8001EF012C0B5F013C0B6F01200000171C0F1
:1005C80077F0000170C076F00AD076C0D9FF77C006
:1005D800DAFF000172C0DFFF0001764B772B0001C4
:1005E8007407D8A0750700017429D8B47529D8B440
:1005F8001200EBD7000EB1EC03F06BEC14F04AECF0
:1006080003F0000E9F6E200EA26ED08EC180C182B4
:10061800C184C186B480B482B484200E425CD8B050
:100628006DB2FBD791EC16F0F8D7000E3E6E000EB7
:10063800216E740E206E000E236E000E226E000EC8
:10064800256E000E246EDFEC01F06D92699401D0E6
:10065800689468B4FDD7000E466E12000101536B12
:10066800526B516B506B4F6B4E6B00EEA1F0220E2C
:10067800EE6AE806FDE100EE34F01B0EEE6AE806CD
:10068800FDE1000EF86E0001FEEF02F0426614D0A4
:10069800000E6D6E000E696E160E6F6E9F0E6B6EFD
:1006A8007B0E696ED08EA28AA08AF28E01D06D86EA
:1006B8006DA6FDD7010E426E120005010105D8A4F2
:1006C80007D003C5BEFF05010251BD14BD6E0BD096
:1006D80005010151020AD8A406D003C5BBFF0501D4
:1006E8000251BA14BA6E1200698468986D82010EBC
:1006F8003E6E000E466E000E216E750E206E000EC8
:10070800236E000E226E000E256E000E246EDFECA6
:1007180001F0120013C019F012C018F008D018C068
:10072800D9FF19C0DAFF14C0DFFF184A192A1606C4
:10073800D8A017061628D8B41728D8B41200EFD7AF
:10074800010E3426000E3522362237223E6604D0AA
:10075800462A466601D0466812000001706F000103
:100768007051000AD8B403D0010AD8A4030A1200B1
:1007780001C5CBFFCA5005010219FC0B050102197E
:10078800CA6E120001C5C7FF02C5C6FF03C5C8FF70
:0607980093809382120021
:100800000091084F086B080908090229000101003E
:10081000C032090400000203000000092111010098
:1008200001221D0007058103400001070501034067
:1008300000010600FF0901A1011901294015002648
:10084000FF00750895408100190129409100C01CE6
:10085000034F006D006100720020005400720065BB
:1008600000760069007A006F002E001403410063D7
:10087000006300650073007300200042002E001228
:1008800001000200000008D8043F0000010102003E
:10089000010403090400010E0501406F010E00016F
:1008A000706F0501050E0001726F0501400E000119
:1008B000716F400E0001736F010E45EC1BF00001DB
:1008C00070C0B3F0000171C0B4F00001B451B311B5
:1008D000D8B413D0B3C0D9FFB4C0DAFFDFAE04D0B0
:1008E0000001776B772B02D00001776B0001775105
:1008F0000001786F0001796B06D0000E0001796F5E
:10090000000E0001786F000179517811D8A4DDD76D
:10091000020E0501406F010E0001706F0501050E0A
:100920000001726F0501400E0001716F400E000161
:10093000736F010E45EC1BF0000170C0B3F00001B5
:1009400071C0B4F00001B451B311D8B413D0B3C026
:10095000D9FFB4C0DAFFDFAE04D00001776B772B8C
:1009600002D00001776B0001775100017A6F00011E
:100970007B6B06D0000E00017B6F000E00017A6FCA
:1009800000017B517A11D8A4DDD7030E0501406F19
:10099000010E0001706F0501050E0001726F050167
:1009A000400E0001716F400E0001736F010E45ECA7
:1009B0001BF0000170C0B3F0000171C0B4F0000181
:1009C000B451B311D8B413D0B3C0D9FFB4C0DAFF57
:1009D000DFAE04D00001776B772B02D00001776B7C
:1009E0000001775100017C6F00017D6B06D0000E85
:1009F00000017D6F000E00017C6F00017D517C11B4
:100A0000D8A4DDD7040E0501406F010E0001706F00
:100A10000501050E0001726F0501400E0001716FA6
:100A2000400E0001736F010E45EC1BF0000170C019
:100A3000B3F0000171C0B4F00001B451B311D8B4E7
:100A400013D0B3C0D9FFB4C0DAFFDFAE04D00001C9
:100A5000776B772B02D00001776B00017751000193
:100A60007E6F00017F6B06D0000E00017F6F000ECD
:100A700000017E6F00017F517E11D8A4DDD7050EE5
:100A80000501406F010E0001706F0501050E0001A8
:100A9000726F0501400E0001716F400E0001736F0F
:100AA000010E45EC1BF0000170C0B3F0000171C0F5
:100AB000B4F00001B451B311D8B413D0B3C0D9FF0E
:100AC000B4C0DAFFDFAE04D00001776B772B02D021
:100AD0000001776B000177510001806F0001816B8D
:100AE00006D0000E0001816F000E0001806F000132
:100AF00081518011D8A4DDD7060E0501406F010E8B
:100B00000001706F0501050E0001726F0501400EB6
:100B10000001716F400E0001736F010E45EC1BF078
:100B2000000170C0B3F0000171C0B4F00001B45115
:100B3000B311D8B413D0B3C0D9FFB4C0DAFFDFAE5D
:100B400004D00001776B772B02D00001776B000196
:100B500077510001826F0001836B06D0000E000107
:100B6000836F000E0001826F000183518211D8A4AF
:100B7000DDD7070E0501406F010E0001706F050102
:100B8000050E0001726F0501400E0001716F400EED
:100B90000001736F010E45EC1BF0000170C0B3F053
:100BA000000171C0B4F00001B451B311D8B413D036
:100BB000B3C0D9FFB4C0DAFFDFAE04D00001776B59
:100BC000772B02D00001776B000177510001846F11
:100BD0000001856B06D0000E0001856F000E00013C
:100BE000846F000185518411D8A4DDD7080E05015A
:100BF000406F010E0001706F0501050E0001726F5C
:100C00000501400E0001716F400E0001736F010E6F
:100C100045EC1BF0000170C0B3F0000171C0B4F0EE
:100C20000001B451B311D8B413D0B3C0D9FFB4C0CC
:100C3000DAFFDFAE04D00001776B772B02D0000122
:100C4000776B000177510001866F0001876B06D03A
:100C5000000E0001876F000E0001866F00018751B2
:100C60008611D8A4DDD7090E0501406F010E0001E1
:100C7000706F0501050E0001726F0501400E000145
:100C8000716F400E0001736F010E45EC1BF0000107
:100C900070C0B3F0000171C0B4F00001B451B311E1
:100CA000D8B413D0B3C0D9FFB4C0DAFFDFAE04D0DC
:100CB0000001776B772B02D00001776B0001775131
:100CC0000001886F0001896B06D0000E0001896F5A
:100CD000000E0001886F000189518811D8A4DDD76A
:100CE0000A0E0501406F010E0001706F0501050E2F
:100CF0000001726F0501400E0001716F400E00018E
:100D0000736F010E45EC1BF0000170C0B3F00001E1
:100D100071C0B4F00001B451B311D8B413D0B3C052
:100D2000D9FFB4C0DAFFDFAE04D00001776B772BB8
:100D300002D00001776B0001775100018A6F00013A
:100D40008B6B06D0000E00018B6F000E00018A6FC6
:100D500000018B518A11D8A4DDD70B0E0501406F1D
:100D6000010E0001706F0501050E0001726F050193
:100D7000400E0001716F400E0001736F010E45ECD3
:100D80001BF0000170C0B3F0000171C0B4F00001AD
:100D9000B451B311D8B413D0B3C0D9FFB4C0DAFF83
:100DA000DFAE04D00001776B772B02D00001776BA8
:100DB0000001775100018C6F00018D6B06D0000E91
:100DC00000018D6F000E00018C6F00018D518C11A0
:100DD000D8A4DDD70C0E0501406F010E0001706F25
:100DE0000501050E0001726F0501400E0001716FD3
:100DF000400E0001736F010E45EC1BF0000170C046
:100E0000B3F0000171C0B4F00001B451B311D8B413
:100E100013D0B3C0D9FFB4C0DAFFDFAE04D00001F5
:100E2000776B772B02D00001776B000177510001BF
:100E30008E6F00018F6B06D0000E00018F6F000EC9
:100E400000018E6F00018F518E11D8A4DDD70D0ED9
:100E50000501406F010E0001706F0501050E0001D4
:100E6000726F0501400E0001716F400E0001736F3B
:100E7000010E45EC1BF0000170C0B3F0000171C021
:100E8000B4F00001B451B311D8B413D0B3C0D9FF3A
:100E9000B4C0DAFFDFAE04D00001776B772B02D04D
:100EA0000001776B000177510001906F0001916B99
:100EB00006D0000E0001916F000E0001906F00013E
:100EC00091519011D8A4DDD70E0E0501406F010E8F
:100ED0000001706F0501050E0001726F0501400EE3
:100EE0000001716F400E0001736F010E45EC1BF0A5
:100EF000000170C0B3F0000171C0B4F00001B45142
:100F0000B311D8B413D0B3C0D9FFB4C0DAFFDFAE89
:100F100004D00001776B772B02D00001776B0001C2
:100F200077510001926F0001936B06D0000E000113
:100F3000936F000E0001926F000193519211D8A49B
:100F4000DDD70F0E0501406F010E0001706F050126
:100F5000050E0001726F0501400E0001716F400E19
:100F60000001736F010E45EC1BF0000170C0B3F07F
:100F7000000171C0B4F00001B451B311D8B413D062
:100F8000B3C0D9FFB4C0DAFFDFAE04D00001776B85
:100F9000772B02D00001776B000177510001946F2D
:100FA0000001956B06D0000E0001956F000E000148
:100FB000946F000195519411D8A4DDD7100E05014E
:100FC000406F010E0001706F0501050E0001726F88
:100FD0000501400E0001716F400E0001736F010E9C
:100FE00045EC1BF0000170C0B3F0000171C0B4F01B
:100FF0000001B451B311D8B413D0B3C0D9FFB4C0F9
:10100000DAFFDFAE04D00001776B772B02D000014E
:10101000776B000177510001966F0001976B06D046
:10102000000E0001976F000E0001966F00019751AE
:101030009611D8A4DDD7110E0501406F010E0001F5
:10104000706F0501050E0001726F0501400E000171
:10105000716F400E0001736F010E45EC1BF0000133
:1010600070C0B3F0000171C0B4F00001B451B3110D
:10107000D8B413D0B3C0D9FFB4C0DAFFDFAE04D008
:101080000001776B772B02D00001776B000177515D
:101090000001986F0001996B06D0000E0001996F56
:1010A000000E0001986F000199519811D8A4DDD766
:1010B000120E0501406F010E0001706F0501050E53
:1010C0000001726F0501400E0001716F400E0001BA
:1010D000736F010E45EC1BF0000170C0B3F000010E
:1010E00071C0B4F00001B451B311D8B413D0B3C07F
:1010F000D9FFB4C0DAFFDFAE04D00001776B772BE5
:1011000002D00001776B0001775100019A6F000156
:101110009B6B06D0000E00019B6F000E00019A6FC2
:1011200000019B519A11D8A4DDD7130E0501406F21
:10113000010E0001706F0501050E0001726F0501BF
:10114000400E0001716F400E0001736F010E45ECFF
:101150001BF0000170C0B3F0000171C0B4F00001D9
:10116000B451B311D8B413D0B3C0D9FFB4C0DAFFAF
:10117000DFAE04D00001776B772B02D00001776BD4
:101180000001775100019C6F00019D6B06D0000E9D
:1011900000019D6F000E00019C6F00019D519C118C
:1011A000D8A4DDD7140E0501406F010E0001706F49
:1011B0000501050E0001726F0501400E0001716FFF
:1011C000400E0001736F010E45EC1BF0000170C072
:1011D000B3F0000171C0B4F012000001B451B311BA
:1011E000D8B413D0B3C0D9FFB4C0DAFFDFAE04D097
:1011F0000001776B772B02D00001776B00017751EC
:1012000000017C6F00017D6B06D0000E00017D6F38
:10121000000E00017C6F00017D517C11D8A457D2D3
:10122000100E0501406F05014169010E0001706F4C
:101230000501050E0001726F0501400E0001716F7E
:10124000400E0001736F010E45EC1BF0000170C0F1
:10125000B3F0000171C0B4F00001B451B311D8B4BF
:1012600013D0B3C0D9FFB4C0DAFFDFAE04D00001A1
:10127000776B772B02D00001776B0001775100016B
:101280007E6F00017F6B06D0000E00017F6F000EA5
:1012900000017E6F00017F517E11D8A4DDD70001CF
:1012A000B451B311D8B413D0B3C0D9FFB4C0DAFF6E
:1012B000DFAE04D00001776B772B02D00001776B93
:1012C000000177510001806F0001816B06D0000E94
:1012D0000001816F000E0001806F000181518011BB
:1012E000D8A4F5D19E96C5809EA6FED79E960501F0
:1012F0000351070AD8A420D002C5C9FF9EA6FED775
:101300009E96C5AC5ED0C5849EA6FED79E96FD0E69
:101310000501406F010E0001706F0501050E00010F
:10132000726F0501400E0001716F400E0001736F76
:10133000010E45EC1BF0DFD1050103510A0AD8A4C8
:1013400040D001C5C9FF9EA6FED79E96C5AC19D058
:10135000C5849EA6FED79E96FD0E0501406F010E28
:101360000001706F0501050E0001726F0501400E4E
:101370000001716F400E0001736F010E45EC1BF010
:10138000BAD102C5C9FF9EA6FED79E96C5AC19D09C
:10139000C5849EA6FED79E96FD0E0501406F010EE8
:1013A0000001706F0501050E0001726F0501400E0E
:1013B0000001716F400E0001736F010E45EC1BF0D0
:1013C0009AD1000E0001836F000E0001826F26D0BB
:1013D000070E000182250001776F000E00018321B6
:1013E0000001786F0501000E00017725D96E050117
:1013F000050E00017821DA6EDF50C96E9EA6FED779
:101400009E96C5AC08D0C5849EA6FED79E96FD0EBE
:101410000501406F76D10001824B832B05010451F9
:101420000001776F786B00018351800A0001796FAA
:1014300077510001825D00017851800A00017959DD
:10144000D8A0C6D705014051FD0AD8A412D0010E7C
:101450000001706F0501050E0001726F0501400E5D
:101460000001716F400E0001736F010E45EC1BF01F
:1014700042D105010651D8B48CD0C5829EA6FED7B4
:101480009E9605010351070AD8A42FD00501060531
:10149000D8A404D005010251010908D00501065164
:1014A000020AD8A404D005010251FE0BC96E9EA603
:1014B000FED79E96C5AC6DD0C5849EA6FED79E96DF
:1014C000FD0E0501406F010E0001706F0501050E54
:1014D0000001726F0501400E0001716F400E0001A6
:1014E000736F010E45EC1BF006D1050103510A0A8A
:1014F000D8A44FD005010605D8A404D00501015198
:10150000010908D005010651020AD8A404D005013A
:101510000151FE0BC96E9EA6FED79E96C5AC19D092
:10152000C5849EA6FED79E96FD0E0501406F010E56
:101530000001706F0501050E0001726F0501400E7C
:101540000001716F400E0001736F010E45EC1BF03E
:10155000D2D002C5C9FF9EA6FED79E96C5AC19D0B3
:10156000C5849EA6FED79E96FD0E0501406F010E16
:101570000001706F0501050E0001726F0501400E3C
:101580000001716F400E0001736F010E45EC1BF0FE
:10159000B2D005010551D8B496D0000E0001856F78
:1015A000000E0001846F7BD0C5A404D00001776BCE
:1015B000772B02D00001776BC5A604D00001786BB1
:1015C000782B02D00001786BC5A204D00001796BA2
:1015D000792B02D00001796BC5A004D000017A6B91
:1015E0007A2B02D000017A6BC5A804D000017B6B76
:1015F0007B2B02D000017B6BC7A402D0010E01D06F
:10160000000E00017B1100017A1100017911000127
:101610007811000177110009D8A4C6D7C5869EA607
:10162000FED79E96010E000184250001776F000E03
:10163000000185210001786F0501400E000177252A
:10164000D96E0501050E00017821DA6EC9CFDFFFE2
:10165000FF0E0001776FFF0E786F05010551000145
:10166000796F7A6B00017751000179270001785179
:1016700000017A230001855100017A1904E100017B
:10168000845100017919D8A402D0C58A01D0C59A25
:10169000C5889EA6FED79E960001844B852B05012A
:1016A00005510001776F786B00018551800A0001B8
:1016B000796F77510001845D00017851800A000143
:1016C0007959D8A071D7C5849EA6FED79E96FC0EE8
:1016D0000501406F010E0001706F0501050E00014C
:1016E000726F0501400E0001716F400E0001736FB3
:1016F000010E45EC1BF0000170C0B3F0000171C099
:10170000B4F012000001B451B311D8B413D0B3C077
:10171000D9FFB4C0DAFFDFAE04D00001776B772BBE
:1017200002D00001776B0001775100017A6F000150
:101730007B6B06D0000E00017B6F000E00017A6FFC
:1017400000017B517A11D8A45DD20C0E0501406FC7
:1017500005014169010E0001706F0501050E0001D0
:10176000726F0501400E0001716F400E0001736F32
:10177000010E45EC1BF0000170C0B3F0000171C018
:10178000B4F00001B451B311D8B413D0B3C0D9FF31
:10179000B4C0DAFFDFAE04D00001776B772B02D044
:1017A0000001776B0001775100017C6F00017D6BB8
:1017B00006D0000E00017D6F000E00017C6F00015D
:1017C0007D517C11D8A4DDD70001B451B311D8B438
:1017D00013D0B3C0D9FFB4C0DAFFDFAE04D000012C
:1017E000776B772B02D00001776B000177510001F6
:1017F0007E6F00017F6B06D0000E00017F6F000E30
:1018000000017E6F00017F517E11D8A4E4D1000E4B
:101810000001816F000E0001806F0501015105017B
:10182000025DD8B005D00501000101C580F004D0EB
:101830000501000102C580F00001816B000E00016E
:10184000836F000E0001826FB6D192A00BD09290F0
:101850008980100E0001776F940EE82EFED7772F47
:10186000FCD700D0899013D192A20BD0929289829A
:10187000100E0001776F940EE82EFED7772FFCD75D
:1018800000D0899204D192A40BD092948984100E36
:101890000001776F940EE82EFED7772FFCD700D08B
:1018A0008994F5D092A60BD092968986100E0001ED
:1018B000776F940EE82EFED7772FFCD700D089964D
:1018C000E6D092A80BD092988988100E0001776F0D
:1018D000940EE82EFED7772FFCD700D08998D7D06A
:1018E00092AA0BD0929A898A100E0001776F940EFB
:1018F000E82EFED7772FFCD700D0899AC8D093A4C2
:101900000BD093948A84100E0001776F940EE82E0A
:10191000FED7772FFCD700D08A94B9D093A60BD0EE
:1019200093968A86100E0001776F940EE82EFED7EC
:10193000772FFCD700D08A96AAD093A80BD0939883
:101940008A88100E0001776F940EE82EFED7772F4D
:10195000FCD700D08A989BD093AA0BD0939A8A8AFE
:10196000100E0001776F940EE82EFED7772FFCD76C
:1019700000D08A9A8CD093AC0BD0939C8A8C100E9A
:101980000001776F940EE82EFED7772FFCD700D09A
:101990008A9C7DD093AE0BD0939E8A8E100E000150
:1019A000776F940EE82EFED7772FFCD700D08A9E53
:1019B0006ED094A00BD094908B80100E0001776FA6
:1019C000940EE82EFED7772FFCD700D08B905FD0F7
:1019D00094A20BD094928B82100E0001776F940E1C
:1019E000E82EFED7772FFCD700D08B9250D094A44E
:1019F0000BD094948B84100E0001776F940EE82E18
:101A0000FED7772FFCD700D08B9441D094AC0BD06D
:101A1000949C8B8C100E0001776F940EE82EFED7ED
:101A2000772FFCD700D08B9C32D005010351000AE0
:101A3000D8B40BD7010AD8B417D7030AD8B423D720
:101A4000010AD8B42FD7070AD8B43BD7010AD8B4B3
:101A500047D7030AD8B453D7010AD8B45FD70F0ABF
:101A6000D8B46BD7010AD8B477D7030AD8B483D7D0
:101A7000010AD8B48FD7070AD8B49BD7010AD8B4C3
:101A8000A7D7030AD8B4B3D7010AD8B4BFD7050182
:101A900002510001776F786B00018351800A0001C9
:101AA000796F000177510001825D00017851800A51
:101AB00000017959D8B019D0040E00018225000127
:101AC000776F000E000183210001786F0501000E81
:101AD00000017725D96E0501050E00017821DA6E27
:101AE000DF50C96EC7A0FED704D0A90EC96EC7A02B
:101AF000FED70501400E00018225D96E0501050EB5
:101B000000018321DA6EC9CFDFFF20D0898050D059
:101B100089824ED089844CD089864AD0898848D021
:101B2000898A46D08A8444D08A8642D08A8840D026
:101B30008A8A3ED08A8C3CD08A8E3AD08B8038D02C
:101B40008B8236D08B8434D08B8C32D005010351FC
:101B5000000AD8B4DBD7010AD8B4DAD7030AD8B45C
:101B6000D9D7010AD8B4D8D7070AD8B4D7D7010A29
:101B7000D8B4D6D7030AD8B4D5D7010AD8B4D4D7A5
:101B80000F0AD8B4D3D7010AD8B4D2D7030AD8B42D
:101B9000D1D7010AD8B4D0D7070AD8B4CFD7010A11
:101BA000D8B4CED7030AD8B4CDD7010AD8B4CCD78D
:101BB0000001824B832B00018351800A0001776F63
:101BC000000180510001825D00018151800A000105
:101BD0007759D8A02AD7010E0001706F0501050EB4
:101BE0000001726F0501400E0001716F400E00018F
:101BF000736F010E45EC1BF0000170C0B3F00001E3
:101C000071C0B4F01200000E0101496F400E0101D5
:101C1000486F400E0001706F000E0001716F000EE2
:101C20000001726F000E0001736F7F0E0001746F70
:101C3000000E0001756F000E0001766F000E0001AE
:101C4000776FA4EC00F0000E0101476F000E010158
:101C5000466F01014651020A4711D8B44AD100012A
:101C6000B651B511D8B413D0B5C0D9FFB6C0DAFF9C
:101C7000DFAE04D00001816B812B02D00001816BAB
:101C8000000181510101406F0101416B06D0000E3E
:101C90000101416F000E0101406F010141514011EE
:101CA000D8A4DDD7000E0001706F0501050E0001FC
:101CB000726F0501000E0001716F400E0001736F1D
:101CC000010E45EC1BF0000170C0B5F0000171C0C1
:101CD000B6F0000E01014B6F000E01014A6F0101C9
:101CE0004A51200A4B11D8B41AD00501000E010147
:101CF0004A25D96E0501050E01014B21DA6E01015D
:101D0000200E01014A25E16E0101010E01014B2166
:101D1000E26EDFCFE7FF01014A4B4B2BE0D7010119
:101D2000000148C170F00101000149C171F00001DA
:101D3000726B0001736B010E0001746F0101010EE3
:101D40000001766F0101200E0001756F28EC19F07B
:101D50000101000148C170F00101000149C171F0A9
:101D60000001726B0001736B000E0001756F200E95
:101D70000001746F0101010E0001776F0101000E77
:101D80000001766FAFEC01F0000E01014D6F000E07
:101D900001014C6F01014C51200A4D11D8B45ED0A5
:101DA0000101000E01014C25D96E0101010E010156
:101DB0004D21DA6EDF500001816F0101200E01011B
:101DC0004C25D96E0101010E01014D21DA6EDF5063
:101DD00000018119D8B43ED0FA0E0501406F000110
:101DE000B451B311D8B413D0B3C0D9FFB4C0DAFF23
:101DF000DFAE04D00001816B812B02D00001816B2A
:101E0000000181510101426F0101436B06D0000EB8
:101E10000101436F000E0101426F01014351421164
:101E2000D8A4DDD7010E0001706F0501050E000179
:101E3000726F0501400E0001716F400E0001736F5B
:101E4000010E45EC1BF0000170C0B3F0000171C041
:101E5000B4F04FD001014C4B4D2B9CD7200E01010B
:101E600048250101486F000E010149210101496F18
:101E7000FB0E0501406F0001B451B311D8B413D06B
:101E8000B3C0D9FFB4C0DAFFDFAE04D00001816B6C
:101E9000812B02D00001816B000181510101446F4F
:101EA0000101456B06D0000E0101456F000E0101D6
:101EB000446F010145514411D8A4DDD7010E000142
:101EC000706F0501050E0001726F0501400E0001E3
:101ED000716F400E0001736F010E45EC1BF00001A5
:101EE00070C0B3F0000171C0B4F00101464B472B44
:101EF000B0D6120085C070F086C071F087C072F055
:101F000088C073F0C00E0001746F7F0E0001756F02
:101F1000000E0001766F000E0001776FA4EC00F058
:101F200081C046F182C047F1010147514611D8B442
:101F30004DD10001B651B511D8B413D0B5C0D9FFF9
:101F4000B6C0DAFFDFAE04D00001896B892B02D066
:101F50000001896B000189510101406F0101416B52
:101F600006D0000E0101416F000E0101406F01011A
:101F700041514011D8A4DDD7000E0001706F05015A
:101F8000050E0001726F0501000E0001716F400E19
:101F90000001736F010E45EC1BF0000170C0B5F03D
:101FA000000171C0B6F0000E0101496F000E010181
:101FB000486F01014851200A4911D8B41AD00501CF
:101FC000000E01014825D96E0501050E01014921C8
:101FD000DA6E0101200E01014825E16E0101010EBA
:101FE00001014921E26EDFCFE7FF0101484B492B98
:101FF000E0D785C070F086C071F087C072F088C0ED
:1020000073F0010E0001746F0101010E0001766F83
:102010000101200E0001756F28EC19F085C070F0E9
:1020200086C071F087C072F088C073F0000E0001A6
:10203000756F200E0001746F0101010E0001776FB2
:102040000101000E0001766FAFEC01F0000E0101FE
:102050004B6F000E01014A6F01014A51200A4B11DA
:10206000D8B45ED00101000E01014A25D96E0101EC
:10207000010E01014B21DA6EDF500001896F010171
:10208000200E01014A25D96E0101010E01014B21EB
:10209000DA6EDF5000018919D8B43ED0FA0E05017E
:1020A000406F0001B451B311D8B413D0B3C0D9FFFD
:1020B000B4C0DAFFDFAE04D00001896B892B02D0F7
:1020C0000001896B000189510101426F0101436BDD
:1020D00006D0000E0101436F000E0101426F0101A5
:1020E00043514211D8A4DDD7010E0001706F0501E4
:1020F000050E0001726F0501400E0001716F400E68
:102100000001736F010E45EC1BF0000170C0B3F0CD
:10211000000171C0B4F05AD001014A4B4B2B9CD73F
:10212000200E000185250001856F000E000186212B
:102130000001866F000E000187210001876F000EED
:10214000000188210001886FFB0E0501406F00012E
:10215000B451B311D8B413D0B3C0D9FFB4C0DAFFAF
:10216000DFAE04D00001896B892B02D00001896B9E
:10217000000189510101446F0101456B06D0000E39
:102180000101456F000E0101446F010145514411E9
:10219000D8A4DDD7010E0001706F0501050E000106
:1021A000726F0501400E0001716F400E0001736FE8
:1021B000010E45EC1BF0000170C0B3F0000171C0CE
:1021C000B4F001014607D8A04707AED61200000EB2
:1021D0000001966F000E0001976F000E0001986FCE
:1021E000000E0001996F000E00019A6F000E0001B1
:1021F0009B6F000E00019C6F000E00019D6F05019A
:1022000001510001966F0001976B0001986B00016E
:10221000996BF00E000196C08BF0000197C08CF016
:10222000000198C08DF000018A6B00018A15000141
:102230008E6F000E00018B1500018F6F000E0001E4
:102240008C150001906F000E00018D150001916F3B
:102250000501025100018E110001966F00018F519E
:102260000001976F000190510001986F000191519A
:102270000001996F0501035100019A6F00019B6BEA
:1022800000019C6B00019D6B00019AC08BF0000166
:102290009BC08CF000019CC08DF000018A6B000E89
:1022A00000018A1500018E6FFF0E00018B150001E1
:1022B0008F6F000E00018C150001906F000E000161
:1022C0008D150001916F0501045100018E1100016F
:1022D0009A6F00018F5100019B6F00019051000126
:1022E0009C6F0001915100019D6F000E0001706F05
:1022F0000501050E0001726F0501000E0001716FEE
:10230000400E0001736F010E45EC1BF0000170C020
:10231000B5F0000171C0B6F0C00E00018A6F410E29
:102320008B6F000E8C6F000E8D6F00018A510001C3
:102330009A5D00018B5100019B5900018C510001F5
:102340009C5900018D5100019D59D8B03ED0FA0E24
:102350000501406F0001B451B311D8B413D0B3C01C
:10236000D9FFB4C0DAFFDFAE04D000018A6B8A2B3C
:1023700002D000018A6B00018A510001926F0001B6
:10238000936B06D0000E0001936F000E0001926F58
:10239000000193519211D8A4DDD7010E0001706F96
:1023A0000501050E0001726F0501400E0001716FFD
:1023B000400E0001736F010E45EC1BF0000170C070
:1023C000B3F0000171C0B4F067D0050140690001AD
:1023D000B451B311D8B413D0B3C0D9FFB4C0DAFF2D
:1023E000DFAE04D000018A6B8A2B02D000018A6B19
:1023F00000018A510001946F0001956B06D0000E18
:102400000001956F000E0001946F00019551941129
:10241000D8A4DDD7010E0001706F0501050E000183
:10242000726F0501400E0001716F400E0001736F65
:10243000010E45EC1BF0000170C0B3F0000171C04B
:10244000B4F003EC0EF096C081F097C082F098C013
:1024500083F099C084F09AC085F09BC086F09CC040
:1024600087F09DC088F07AEC0FF0000E0001706FCD
:102470000501050E0001726F0501000E0001716F6C
:10248000400E0001736F010E45EC1BF0000170C09F
:10249000B5F0000171C0B6F0120004012205D8A405
:1024A00011D0040120511F0B0009D8A40BD000014A
:1024B000C08F04012151030AD8A402D0010E01D01B
:1024C000000E3D6E0401226743D1040120511F0B11
:1024D000020AD8A43DD1040124510F0B0009D8B43D
:1024E00037D1040124510F0B286E020E285CD8B09E
:1024F0002FD14250200AD8A42BD10001C08F040153
:1025000024BF1FD0040124510F0B286E2850020D48
:102510000001AD0EF324D96E0001000EF420DA6E36
:10252000DECF2EF0DDCF2FF0040124510F0B286EEB
:102530002850010D0001B90EF324D96E0001000EE0
:102540001ED0040124510F0B286E2850020D0001EB
:10255000A90EF324D96E0001000EF420DA6EDECF4E
:102560002EF0DDCF2FF0040124510F0B286E2850E0
:10257000010D0001B70EF324D96E0001000EF42006
:10258000DA6EDF502D6E2DB002D02E9401D02E8445
:10259000040124BF0DD0040124510F0B286E2850D4
:1025A000020D0001AD0EF324D96E0001000E0CD017
:1025B000040124510F0B286E2850020D0001A90EB2
:1025C000F324D96E0001000EF420DA6E2EC0DEFF77
:1025D0002FC0DDFF04012151030AD8A433D02EC03F
:1025E000D9FF2FC0DAFFDFAE20D0040124BF0DD009
:1025F000040124510F0B286E2850010D0001B90E63
:10260000F324D96E0001000E0CD0040124510F0BED
:10261000286E2850010D0001B70EF324D96E000179
:10262000000EF420DA6E0001DF822EC0D9FF2FC029
:10263000DAFF000EDB842EC0D9FF2FC0DAFF000EB8
:10264000DB8E86D0040E2E1A2EC0D9FF2FC0DAFFE3
:10265000DFAE1BD02EC0D9FF2FC0DAFF7F0EDF16F2
:102660002EC0D9FF2FC0DAFF000EDB8C000E216ECA
:10267000050E206E2FC023F02EC022F0000E256E16
:10268000020E246EDFEC01F006D02EC0D9FF2FC061
:10269000DAFF000EDB8C040E2E1A2DB206D02EC0EF
:1026A000D9FF2FC0DAFFDFAE35D0040124BF0DD033
:1026B000040124510F0B286E2850010D0001B90EA2
:1026C000F324D96E0001000E0CD0040124510F0B2D
:1026D000286E2850010D0001B70EF324D96E0001B9
:1026E000000EF420DA6E0001DF922EC0D9FF2FC059
:1026F000DAFF3B0EDF16000E216E050E206E2FC096
:1027000023F02EC022F0000E256E020E246EDFECA8
:1027100001F006D02EC0D9FF2FC0DAFF3B0EDF1626
:10272000040124510F0B286E2850010D700E296EE4
:102730000F0E2A6EF3502926F4502A2229C02BF0BE
:102740002AC02CF02BC0D9FF2CC0DAFFFE0EDF16FA
:1027500012000001B451B311D8B413D0B3C0D9FFE3
:10276000B4C0DAFFDFAE04D00001776B772B02D064
:102770000001776B0001775100017C6F00017D6BD8
:1027800006D0000E00017D6F000E00017C6F00017D
:102790007D517C11D8A49ED005010251660AD8B49F
:1027A00037D005010251AF0AD8B432D00501025129
:1027B000B20AD8B42DD005010251BB0AD8B428D032
:1027C00005010251BE0AD8B423D005010251C30A43
:1027D000D8B41ED005010251CE0AD8B419D00501D3
:1027E0000251D60AD8B414D005010251D90AD8B47E
:1027F0000FD005010251E10AD8B40AD005010251F7
:10280000E90AD8B405D005010251F30AD8A431D0A1
:102810000001E9CF78F00001796B0001EACF7AF08E
:1028200000017B6B0F0EEA6E02C5E9FFEECF43F5A8
:10283000EFCF44F5000E0501456F000E0501466F10
:10284000010E0501406F01C541F502C542F5010EBB
:102850000001706F0501050E0001726F0501400E49
:102860000001716F400E0001736F010E45EC1BF00B
:1028700027D00F0EEA6E02C5E9FFEFCF43F5000E39
:102880000501446F000E0501456F000E0501466FFE
:10289000010E0501406F01C541F502C542F5010E6B
:1028A0000001706F0501050E0001726F0501400EF9
:1028B0000001716F400E0001736F010E45EC1BF0BB
:1028C000000170C0B3F0000171C0B4F078C0E9FF3E
:1028D0007AC0EAFF1200A09A000E6A6E000E686EBF
:1028E000000E706E0F0E0001716F710E0001706F9F
:1028F000000E0001736F000E0001726F000E0001E8
:10290000756F010E0001746FE2EC02F0160E6F6E2F
:102910009F0E6B6E7B0E696E000E0001786F11D0FA
:1029200000017851040D0401000EF324D96E040156
:10293000040EF420DA6EDE6ADE6ADE6ADD6A000109
:10294000782B070E00017865EBD76D8C000E6E6E4C
:102950006D986D9C6896000E0001C06F000E00011E
:10296000A46F000E0001A66F000E0001A56F68B6EF
:10297000F1D7010E436E010E446E000E3F6E000E45
:10298000406E000E3E6E000E0001786F3AD00001DE
:102990007851020D0001A90EF324D96E0001000E3A
:1029A000F420DA6E000EDE6E000EDD6E000178514E
:1029B000020D0001AD0EF324D96E0001000EF420CB
:1029C000DA6E000EDE6E000EDD6E00017851010D34
:1029D0000001B70EF324D96E0001000EF420DA6E68
:1029E000000EDF6E00017851010D0001B90EF324D5
:1029F000D96E0001000EF420DA6E000EDF6E0001C9
:102A0000782B010E00017865C2D70401040E000185
:102A1000AA6F0401080E0001A96F160E706E040E55
:102A20000401036F200E0401026F080E0401016F00
:102A3000040E0401006F0401008F000E4A6E000EA8
:102A4000346E000E356E000E366E000E376E000EC0
:102A5000466E000E426E12000001B451B311D8B49C
:102A600013D0B3C0D9FFB4C0DAFFDFAE04D0000189
:102A7000776B772B02D00001776B00017751000153
:102A80007C6F00017D6B06D0000E00017D6F000E93
:102A900000017C6F00017D517C11D8A48FD005010D
:102AA0000251660AD8B437D005010251AF0AD8B432
:102AB00032D005010251B20AD8B42DD0050102511D
:102AC000BB0AD8B428D005010251BE0AD8B423D01D
:102AD00005010251C30AD8B41ED005010251CE0A25
:102AE000D8B419D005010251D60AD8B414D00501C2
:102AF0000251D90AD8B40FD005010251E10AD8B465
:102B00000AD005010251E90AD8B405D005010251E5
:102B1000F30AD8A42BD00001E9CF78F00001796B3B
:102B20000001EACF7AF000017B6B0F0EEA6E02C55E
:102B3000E9FF03C5EEFF04C5EFFF020E0501406F7C
:102B400001C541F502C542F5010E0001706F050196
:102B5000050E0001726F0501400E0001716F400EFD
:102B60000001736F010E45EC1BF01ED00F0EEA6ED4
:102B700002C5E9FF03C5EFFF020E0501406F01C565
:102B800041F502C542F5010E0001706F0501050E09
:102B90000001726F0501400E0001716F400E0001CF
:102BA000736F010E45EC1BF0000170C0B3F0000123
:102BB00071C0B4F078C0E9FF7AC0EAFF12000001EA
:102BC000B451B311D8B413D0B3C0D9FFB4C0DAFF35
:102BD000DFAE04D00001776B772B02D00001776B5A
:102BE000000177510001786F0001796B06D0000E6B
:102BF0000001796F000E0001786F000179517811A2
:102C0000D8A48ED0070E0501406F05014169010E61
:102C10000001706F0501050E0001726F0501400E85
:102C20000001716F400E0001736F010E45EC1BF047
:102C3000000170C0B3F0000171C0B4F00001B451E4
:102C4000B311D8B413D0B3C0D9FFB4C0DAFFDFAE2C
:102C500004D00001776B772B02D00001776B000165
:102C6000775100017A6F00017B6B06D0000E0001E6
:102C70007B6F000E00017A6F00017B517A11D8A49E
:102C8000DDD70001B451B311D8B413D0B3C0D9FF0C
:102C9000B4C0DAFFDFAE04D00001776B772B02D02F
:102CA0000001776B0001775100017C6F00017D6BA3
:102CB00006D0000E00017D6F000E00017C6F000148
:102CC0007D517C11D8A42CD001C577F00001774745
:102CD0007747C25000017719C30B7719C26EC282C1
:102CE000C2B2FED7070E0501406FC3CF41F5C4CF76
:102CF00042F5010E0001706F0501050E0001726FB3
:102D00000501400E0001716F400E0001736F010E4E
:102D100045EC1BF0000170C0B3F0000171C0B4F0CD
:102D200012000001B651B511D8B413D0B5C0D9FF07
:102D3000B6C0DAFFDFAE04D000019E6B9E2B02D03E
:102D400000019E6B00019E5100019F6F0001A06B6E
:102D500006D0000E0001A06F000E00019F6F000161
:102D6000A0519F11D8B43AD08BD0A9EC13F071D0F8
:102D70002CEC15F06ED00CEC1EF06BD0DFEC15F0E7
:102D800068D07EEC01F065D087EC02F062D082EC76
:102D90000BF05FD045EC1AF05CD0C6EC03F059D0D4
:102DA000EDEC08F056D03AEC02F053D0BCEC03F056
:102DB00050D061EC03F04DD0D8EC1EF04AD039EC85
:102DC00001F047D001EC20F044D04BEC04F041D0AE
:102DD00040EC21F03ED0E7EC10F03BD00501005173
:102DE000010AD8B4C2D7030AD8B4C2D7040AD8B4E7
:102DF000C2D7010AD8B4C2D70F0AD8B4C2D7020AC0
:102E0000D8B4C2D7060AD8B4C2D7010AD8B4C2D738
:102E1000030AD8B4C2D71E0AD8B4C2D7010AD8B49C
:102E2000C2D7030AD8B4C2D7010AD8B4C2D7070A96
:102E3000D8B4C5D7010AD8B4C5D7030AD8B4BCD70B
:102E40000E0AD8B4C5D7010AD8B4C5D7E60AD8B493
:102E5000BCD7000E0001706F0501050E0001726FF6
:102E60000501000E0001716F400E0001736F010E2D
:102E700045EC1BF0000170C0B5F0000171C0B6F068
:102E80001200A09A000E6A6E000E686E000E706E40
:102E90000F0E136E710E126E000E156E000E146E74
:102EA000000E176E010E166E8EEC03F0160E6F6E8E
:102EB0009F0E6B6E7B0E696E000E1A6E0FD01A504D
:102EC000040D0401000EF324D96E0401040EF42055
:102ED000DA6EDE6ADE6ADE6ADD6A1A2A070E1A64B4
:102EE000EED76D8C000E6E6E6D986D9C6896000E20
:102EF0000001C06F000E0001A46F000E0001A66F5C
:102F0000000E0001A56F68B6F1D7010E436E010EE9
:102F1000446E000E3F6E000E406E000E3E6E000EC0
:102F20001A6E35D01A50020D0001A90EF324D96E85
:102F30000001000EF420DA6E000EDE6E000EDD6E73
:102F40001A50020D0001AD0EF324D96E0001000EDF
:102F5000F420DA6E000EDE6E000EDD6E1A50010DEA
:102F60000001B70EF324D96E0001000EF420DA6ED2
:102F7000000EDF6E1A50010D0001B90EF324D96E58
:102F80000001000EF420DA6E000EDF6E1A2A010E28
:102F90001A64C8D70401040E0001AA6F0401080EC8
:102FA0000001A96F160E706E040E0401036F200E4F
:102FB0000401026F080E0401016F040E0401006F8A
:102FC0000401008F000E4A6E000E346E000E356E46
:102FD000000E366E000E376E000E466E000E426E0C
:102FE000120004012051800AD8A499D0C00E00011B
:102FF000C06F89D0080E0001BE6F7F0E0001BD6F4B
:10300000000E0001C26F120E0001C16F88D00401D2
:10301000226775D004012251020D070EF324F66ECB
:10302000080EF420F76E09000001F5CFBDF00A008C
:103030000001F5CFBEF0020E0001BD25126E000E9C
:103040000001BE21136E12C0F6FF13C0F7FFF86A2D
:10305000070EF76403D00800F55005D0F6CFE1FF66
:10306000F7CFE2FFE7500001C16F030E0001BD255D
:10307000126E000E0001BE21136E12C0F6FF13C0C7
:10308000F7FFF86A070EF76403D00800F55005D083
:10309000F6CFE1FFF7CFE2FFE7500001C26F3FD06C
:1030A000030E0401225DD8B02AD004012251020D82
:1030B000010EF324F66E080EF420F76E09000001ED
:1030C000F5CFBDF00A000001F5CFBEF00001BDC094
:1030D000F6FF0001BEC0F7FFF86A070EF76403D0E1
:1030E0000800F55005D0F6CFE1FFF7CFE2FFE7503B
:1030F000126E12500001C16F0001C26B10D0000EA1
:103100000001C06F0CD004012351010AD8B472D75A
:10311000030AD8B47CD7010AD8B4C2D7F0D71200BA
:103120004204D8B46DBA06D0000E686E6980698812
:10313000020E426E68B469A403D0689419EC03F0DF
:103140006DB284D068B069A006D041EC17F0A08AB7
:10315000040E426E689068B869A802D078EC03F05B
:1031600068AC1AD069AC0ED0000E216E730E206EC2
:10317000000E236E000E226E000E256E010E246ED0
:10318000DFEC01F0689CA4EC03F04550D8A44506A0
:10319000456602D09FEC1FF068BA69AA02D0A6EC7F
:1031A00002F068B269A20FD07F0E216E2068000E77
:1031B000236E000E226E000E256E010E246EDFECD3
:1031C00001F0000E6A6E040E425CD8B069A63ED0D3
:1031D000000E0001616F36D068A638D06CCF4CF07D
:1031E0004C30E832E8320F0B486E68964CB409D088
:1031F0004850010D0001B90EF324D96E0001000EF4
:1032000008D04850010D0001B70EF324D96E00011B
:10321000000EF420DA6E0001DF70486603D09CECEB
:103220001DF00ED0000E216E720E206E000E236E69
:103230004C0E226E000E256E000E246EDFEC01F0A7
:103240000001612B030E00016165C6D7A19A12002F
:10325000000E00017B6F000E00017C6F050E000167
:10326000776FD8900001733300017233000171331E
:10327000000170330001772FF4D70001050ED890BC
:103280000001703700017137000172370001733798
:10329000E82EF5D770C07DF071C07EF072C07FF06F
:1032A00073C080F064D000017FC07AF000017EC05E
:1032B00079F000017DC078F0200E00017B6F1DD0F9
:1032C00075C0D9FF76C0DAFFDF50000178C0F6FF85
:1032D000000179C0F7FF00017AC0F8FFF56E0C001D
:1032E0000001754B762B0001010E00017827000EBE
:1032F00000017923000E00017A2300017B07000101
:103300007B29D8A4DDD700017FC07AF000017EC000
:1033100079F000017DC078F0A68EA69CA684F2AE5E
:1033200004D0F29E010E00017C6F550EA76EAA0E0E
:10333000A76EA682A69400017C51D8B404D0F28E68
:10334000000E00017C6F200E00017D2500017D6FC5
:10335000000E00017E2100017E6F000E00017F2122
:1033600000017F6F000E000180210001806F0001CD
:10337000740700017429D8B4120095D720EE01F02B
:103380003850D9263950DA22DF50136E135000011D
:10339000A55D000E0001A659D8A0A5C013F01350DA
:1033A0000001A55F000E0001A65B000E126E14D096
:1033B0001250010D0401280EF324D96E0401040EED
:1033C000F420DA6EA1C0E1FFA2C0E2FFDFCFE7FF89
:1033D0000001A14BA22B122A1350125CD8A0E8D7EF
:1033E0000001A651A511D8B42BD020EE01F03A501F
:1033F000D9263B50DA22080EDF6E20EE02F03A505A
:10340000D9263B50DA22280EDE6E040EDD6E38C05F
:10341000D9FF39C0DAFFDFBC06D03AC0D9FF3BC0C4
:10342000DAFF480E05D03AC0D9FF3BC0DAFF080EDC
:10343000DF6E3AC0D9FF3BC0DAFF000EDB8E24D02E
:1034400020EE01F03A50D9263B50DA22080EDF6E0A
:1034500020EE02F03A50D9263B50DA22200EDE6EE2
:10346000040EDD6E3AC0D9FF3BC0DAFF040EDF6EFA
:103470003AC0D9FF3BC0DAFF000EDB8E0001A49FEB
:10348000416602D09FEC1FF012000001E9CFB1F0BD
:103490000001B26B0101EACF52F10101536B0F0E33
:1034A000EA6E02C5E9FF05010405D8B419D032D08F
:1034B0000F01EF802FD00F01EF822CD00F01EF848E
:1034C00029D00F01EF8626D00F01EF8823D00F01FE
:1034D000EF8A20D00F01EF8C1DD00F01EF8E1AD094
:1034E00005010351000AD8B4E3D7010AD8B4E3D7E1
:1034F000030AD8B4E3D7010AD8B4E3D7070AD8B48B
:10350000E3D7010AD8B4E3D7030AD8B4E3D7010A52
:10351000D8B4E3D70501046733D018D00F01EF907A
:103520002FD00F01EF922CD00F01EF9429D00F0173
:10353000EF9626D00F01EF9823D00F01EF9A20D0FD
:103540000F01EF9C1DD00F01EF9E1AD00501035112
:10355000000AD8B4E3D7010AD8B4E3D7030AD8B431
:10356000E3D7010AD8B4E3D7070AD8B4E3D7010AEE
:10357000D8B4E3D7030AD8B4E3D7010AD8B4E3D761
:10358000B1C0E9FF52C1EAFF1200040120511F0B34
:10359000126E1204D8A478D004012451D8A474D097
:1035A00004012151060AD8B41FD027D04A04D8A458
:1035B00024D0080E0001BE6F1B0E0001BD6F000E6F
:1035C0000001C26F090E0AD0080E0001BE6F320E54
:1035D0000001BD6F000E0001C26F1D0E0001C16F22
:1035E000C00E0001C06F09D004012351210AD8B4D4
:1035F000DDD7030AD8B4E8D7010A04012039E8323C
:10360000030B126E1204D8A43FD02AD0000E000182
:10361000BE6F4E0E0001BD6F000E0001C26F010EA5
:103620000001C16FC10E13D0800E0001C06F23C412
:103630004EF02AD0000E0001BE6F4D0E0001BD6F8E
:10364000000E0001C26F010E0001C16F810E00016A
:10365000C06F1AD0800E0001C06F22C44DF014D08C
:1036600004012151010AD8B40FD0030AD8B4CED72F
:10367000010AD8B4DFD70A0AD8B406D0030AD8B4EE
:10368000D3D7010AD8B4E6D712000001746F000145
:103690007051D8B40AD000017451020D0001A90E76
:1036A000F324D96E0001000E09D000017451020DFF
:1036B0000001AD0EF324D96E0001000EF420DA6E85
:1036C0000001DECF75F00001DDCF76F0000176510C
:1036D0007511D8A407D0000E0001716F000E000113
:1036E000706F4ED0000120EE02F000017551D92616
:1036F00000017651DA22000171C0DEFF000172C0C4
:10370000DDFF000120EE01F000017551D926000116
:103710007651DA22000173C0DFFF75C0D9FF76C091
:10372000DAFF400EDF1675C0D9FF76C0DAFF000E53
:10373000DB8675C0D9FF76C0DAFF000EDB8E000194
:103740007051D8B40AD000017451020D0001A90EC5
:10375000F324D96E0001000E09D000017451020D4E
:103760000001AD0EF324D96E0001000EF420DA6ED4
:10377000040EDF1A000176C071F0000175C070F010
:1037800012006D980001C0BF39D00001A4AF0BD06A
:10379000020E476E406602D0B5EC20F0000E446E7B
:1037A000000E436E65D020EE01F03A50D9263B5012
:1037B000DA22080EDF6E20EE02F03A50D9263B5096
:1037C000DA22200EDE6E040EDD6E3AC0D9FF3BC059
:1037D000DAFF0C0EDF6E3AC0D9FF3BC0DAFF000EF5
:1037E000DB8EA9C0D9FFAAC0DAFF040EDF6EA9C024
:1037F000D9FFAAC0DAFF000EDB8E3AD0040120AF59
:103800000FD0010E476E3F6602D0B5EC20F0000EDF
:10381000446E000E436E41662BD09FEC1FF028D003
:10382000020E476E20EE01F03A50D9263B50DA22C4
:10383000080EDF6E20EE02F03A50D9263B50DA2215
:10384000200EDE6E040EDD6E3AC0D9FF3BC0DAFFFB
:10385000040EDF6E3AC0D9FF3BC0DAFF000EDB8EEC
:10386000000E446E000E436E416602D09FEC1FF0C6
:1038700012000001C08F0F0E136E710E126E000E3B
:10388000156E000E146E000E176E010E166E8EEC85
:1038900003F00401040E136E0401000E126E000EFC
:1038A000156E000E146E000E176E200E166E8EEC46
:1038B00003F06D8C000E286E19D02850010D000108
:1038C000B70EF324D96E0001000EF420DA6E000E5C
:1038D000DF6E2850010D0001B90EF324D96E0001EE
:1038E000000EF420DA6E000EDF6E282A010E286426
:1038F000E4D7000E136E4B0E126E000E156E000E06
:10390000146E000E176E010E166E8EEC03F06D9C99
:103910000401040E0001AA6F0401080E0001A96F42
:103920000401040E396E0401000E386E39C03BF0FC
:1039300038C03AF022C44AF04A6602D0100E0FD0C6
:10394000000E216E010E206E000E236E4A0E226EB6
:10395000000E256E010E246EDFEC01F0200E426E8B
:10396000120004012039E832030B0009D8A46FD0FB
:103970004DD00001C08F080E426E69D0F1EC17F0F7
:1039800066D039EC1CF063D0000E0001BE6F4A0E09
:103990000001BD6F15D03CEC1FF059D04DEC12F07A
:1039A00056D004012451010D4B0E306E000E316EC5
:1039B000F3503026F450312230C0BDF031C0BEF09B
:1039C0000001C081010E0001C16F0001C08F3FD016
:1039D0000001C08F04012451010D4B0EF324D96E58
:1039E000000EF420DA6E040122C4DFFF30D0000E96
:1039F000216E020E206E000E236E000E226E000E4F
:103A0000256E000E246EDFEC01F021D0040121515F
:103A1000000AD8B4C0D7010AD8B4C0D7020AD8B4B3
:103A2000BDD7060AD8B4A5D7030AD8B4A7D7010AC8
:103A3000D8B4DDD70F0AD8B4A7D7010AD8B4A1D714
:103A4000030AD8B4AED7010AD8B4C2D7070A120005
:103A5000080E126E080E0001C15D000E0001C25971
:103A6000D8B00BD0C1C012F0496602D0010E04D00C
:103A70004904D8A402D0020E496E12500001C15F61
:103A8000000E0001C25B000120EE01F00001A9510F
:103A9000D9260001AA51DA2212C0DFFF0401040E68
:103AA0000001BC6F0401280E0001BB6F0001C0A122
:103AB0001FD03FD00001BDC0F6FF0001BEC0F7FF20
:103AC000F86ABBC0D9FFBCC0DAFF070EF76403D0A9
:103AD0000800F55005D0F6CFE1FFF7CFE2FFE75041
:103AE000DF6E0001BD4BBE2B0001BB4BBC2B120691
:103AF0001266E0D720D00001BDC0F6FF0001BEC0B5
:103B0000F7FFF86ABBC0D9FFBCC0DAFF070EF76445
:103B100003D00800F55005D0F6CFE1FFF7CFE2FF64
:103B2000E750DF6E0001BD4BBE2B0001BB4BBC2B31
:103B300012061266E0D712002D0E456E4CC032F010
:103B4000FD0E3216D8A45ED04CC032F0D89032327E
:103B50003F0E32163250040D0401000EF324386E6D
:103B60000401040EF420396E39C03BF038C03AF03D
:103B7000040E3A1A38C0D9FF39C0DAFFDF30E83214
:103B80000F0B0D0AD8A43BD0000E0001606F26D0A9
:103B900020EE02F03850D9263950DA22DECF32F04A
:103BA000DDCF33F032C0D9FF33C0DAFF00016051FE
:103BB000010D0401200EF324E16E0401040EF42033
:103BC000E26EDFCFE7FF20EE02F03850D926395001
:103BD000DA22DE2A000EDD220001602B070E000132
:103BE0006065D6D720EE02F03850D9263950DA2257
:103BF000200EDE6E040EDD6EF0EC00F00CD00DEC4D
:103C000002F009D04CC032F0FD0E32163250040AD8
:103C1000D8B462EC20F012000101C2CF4EF10101D4
:103C20004F6B0101C0CF50F10101516B01014E51A9
:103C3000030B05010111C26E02C5C1FF03C5C0FF20
:103C400020D02F0E926E1F0E0FD02F0E926E1E0ED2
:103C50000BD02F0E926E0D0E07D02F0E926E0C0E03
:103C600003D02F0E926E040E936E3CD02F0E07D011
:103C70000F0E05D0070E03D0030E01D0010E926E79
:103C800031D0C1500F0B0001706F716B0001715189
:103C9000000AD8A427D000017051000AD8B4D1D7A7
:103CA000010AD8B4CED7030AD8B4CBD7010AD8B406
:103CB000CCD7070AD8B4CDD7010AD8B4CED7030AD7
:103CC000D8B4CFD70C0AD8B4D1D7010AD8B4D0D73A
:103CD000070AD8B4CFD7010AD8B4CED7030AD8B4CC
:103CE000CDD7010A1200166E1250D8B409D0165062
:103CF000020D0001A90EF324D96E0001000E08D0B8
:103D00001650020D0001AD0EF324D96E0001000E15
:103D1000F420DA6EDECF17F0DDCF18F01850171050
:103D2000D8A405D0000E136E000E126E40D020EE07
:103D300002F01750D9261850DA2213C0DEFF14C043
:103D4000DDFF20EE01F01750D9261850DA2215C0F9
:103D5000DFFF17C0D9FF18C0DAFF400EDF1617C00B
:103D6000D9FF18C0DAFF000EDB8617C0D9FF18C0D4
:103D7000DAFF000EDB8E1250D8B409D01650020DB7
:103D80000001A90EF324D96E0001000E08D01650D0
:103D9000020D0001AD0EF324D96E0001000EF420D7
:103DA000DA6E040EDF1A18C013F017C012F01200FA
:103DB0000001E9CFB1F00001B26B0101EACF52F18D
:103DC0000101536B0F0EEA6E02C5E9FF1CD0EFB084
:103DD00006D015D0EFB203D012D0EFA410D0010E50
:103DE0000FD0EFA60CD0FBD7EFB8F9D708D0EFAAC9
:103DF00006D0F5D7EFAC03D0F2D7EFBEF0D7000E68
:103E00000501416F1AD005010351000AD8B4DFD76C
:103E1000010AD8B4DFD7030AD8B4DFD7010AD8B46F
:103E2000E0D7070AD8B4E0D7010AD8B4E0D7030A2C
:103E3000D8B4E0D7010AD8B4E0D7B1C0E9FF52C185
:103E4000EAFF160E0501406F010E0001706F0501BB
:103E5000050E0001726F0501400E0001716F400EEA
:103E60000001736F010E45EC1BF0000170C0B3F050
:103E7000000171C0B4F01200000E0401286F000EA2
:103E80000401296F3FD00001C08F3D04D8A446D063
:103E90000401288343D00001C08F40D00001C08FAF
:103EA000040124BF0DD0040124510F0B126E1250D7
:103EB000020D0001AD0EF324D96E0001000E0CD0EE
:103EC000040124510F0B126E1250020D0001A90EB5
:103ED000F324D96E0001000EF420DA6EDECF13F069
:103EE000DDCF14F013C0D9FF14C0DAFFDFAE16D057
:103EF00013C0D9FF14C0DAFFDFA410D0010E0401F3
:103F0000286F0CD0040120511F0B000AD8B4BBD776
:103F1000010AD8B4C0D7030AD8B4C0D70001C0AFD3
:103F20000DD00401040E0001BE6F0401280E000133
:103F3000BD6F0001C081020E0001C16F1200436617
:103F40005FD0010E436E44665BD0010E446E475055
:103F5000020AD8A418D0000120EE01F00001A951F6
:103F6000D9260001AA51DA22000EDF6EA9C0D9FFBE
:103F7000AAC0DAFF480EDF6EA9C0D9FFAAC0DAFFD7
:103F8000000EDB8E3DD04704D8A43AD0000E3C6E24
:103F900020EE01F03850D9263950DA22080EDF6EB3
:103FA00020EE02F03850D9263950DA22200EDE6E8B
:103FB000040EDD6E38C0D9FF39C0DAFF040EDF6EA3
:103FC00038C0D9FF39C0DAFF000EDB8E010E3C6E1F
:103FD00020EE01F03A50D9263B50DA22080EDF6E6F
:103FE00020EE02F03A50D9263B50DA22200EDE6E47
:103FF000040EDD6E3AC0D9FF3BC0DAFF800EDF6EE3
:104000001200ACA80AD005010105D8A402D0AB8AE1
:1040100004D00501016701D0AB88000E00017D6F5F
:10402000000E00017C6F12D09EAAFED79E9A050159
:10403000400E00017C25D96E0501050E00017D2191
:10404000DA6EAECFDFFF00017C4B7D2BFF0E00014F
:10405000776FFF0E786F050102510001796F7A6B5F
:1040600000017751000179270001785100017A237E
:1040700000017A51800A00017B6F00017C51000130
:10408000795D00017D51800A00017B59D8B0CCD701
:10409000ACB8AB98010E0001706F0501050E000170
:1040A000726F0501400E0001716F400E0001736FC9
:1040B000010E45EC1BF0000170C0B3F0000171C0AF
:1040C000B4F01200A9C0D9FFAAC0DAFF000EDFBC0D
:1040D000010E136E040E0001A91B4250080AD8A459
:1040E0000BD0040122517F0B6E6E6E50D8B402D0FB
:1040F000100E01D0040E426E4704D8A42ED0000149
:1041000020EE02F00001A951D9260001AA51DA22BD
:10411000280EDE6E040EDD6E28EC1DF04950020AFA
:10412000D8A406D0A9C0D9FFAAC0DAFF040E0DD0CA
:10413000136606D0A9C0D9FFAAC0DAFF480E05D081
:10414000A9C0D9FFAAC0DAFF080EDF6EA9C0D9FF47
:10415000AAC0DAFF000EDB8E07D00001A4AF02D0A8
:104160000001A49F000E476E1200000E3F6E000E6D
:10417000406E4750020AD8A41DD020EE01F03A50FC
:10418000D9263B50DA22080EDF6E20EE02F03A50BC
:10419000D9263B50DA22280EDE6E040EDD6E3AC0C0
:1041A000D9FF3BC0DAFF480EDF6E3AC0D9FF3BC0F3
:1041B000DAFF27D00001C1510401265D0001C25180
:1041C00004012759D8B004D026C4C1F027C4C2F0D6
:1041D00028EC1DF0000120EE02F00001A951D926C3
:1041E0000001AA51DA22280EDE6E040EDD6EA9C08F
:1041F000D9FFAAC0DAFF480EDF6EA9C0D9FFAAC056
:10420000DAFF000EDB8E12000600EACF65F0E1CF88
:1042100066F0E2CF67F0D9CF68F0DACF69F0F3CF7C
:104220006AF0F4CF6BF0F6CF6CF0F7CF6DF0F8CF0B
:104230006EF0F5CF6FF090EC18F06FC0F5FF6EC028
:10424000F8FF6DC0F7FF6CC0F6FF6BC0F4FF6AC0EB
:10425000F3FF69C0DAFF68C0D9FF67C0E2FF66C03C
:10426000E1FF65C0EAFF64C0E9FF63C0FBFF62C015
:04427000FAFF110040
:044280001200120016
:020000040020DA
:08000000FFFFFFFFFFFFFFFF00
:020000040030CA
:0E00000020023F1EFF0181FF0FC00FE00F40E6
:00000001FF
